:100000000C942A000C942D010C9452010C9447007E
:100010000C9447000C94D5010C9447000C944700B5
:100020000C9447000C9447000C9447000C946A0011
:100030000C9447000C9447000C9447000C94470024
:100040000C9447000C9447000C9447000C94470014
:100050000C94470011241FBECFE5D4E0DEBFCDBF16
:1000600010E0A0E6B0E0ECE7F2E102C005900D92EE
:10007000A037B107D9F710E0A0E7B0E001C01D92AA
:10008000A93FB107E1F70E94FC060C943C090C94CF
:100090000000AB9A0895AB98089587B38F6087BB33
:1000A00088B3807F88BB81B3806381BB82B3806368
:1000B00082BB089588E18AB986E880BD8FE289B95C
:1000C00010BC08955D9BFECF8CB908955F9BFECF59
:1000D0008CB108951F920F920FB60F9211242F9397
:1000E0003F935F936F937F938F939F93AF93BF9350
:1000F000EF93FF938CB180939E00813411F0833491
:1001000039F421E030E0309398002093970007C045
:1001100020919700309198002130310571F4853499
:1001200061F090E064E670E00E941509FC01EE0FBA
:10013000FF1FEF54FF4F71836083FF91EF91BF91D9
:10014000AF919F918F917F916F915F913F912F918F
:100150000F900FBE0F901F90189584B3876F84BBCC
:1001600085B3807885BB08951ABA1BBA08951EBC62
:100170008FEF8DBD91E09CBD1BBC8ABD19BC88BDB5
:1001800017BC86BD81EA8FBD8DE08EBD089516B87F
:1001900080E287B980E888B986E886B908958770D3
:1001A000806287B9369A349BFECF85B1349A089520
:1001B0000F931F93CF93DF938C01EA018D5F0E9411
:1001C000CF0090E08C179D07FCF0F801EE0FFF1FA9
:1001D000E858FF4F81E090E0918380838091720026
:1001E0009091730001969093730080937200C80100
:1001F00001960091700010917100080F191F109363
:1002000071000093700007C0F801EE0FFF1FE8585F
:10021000FF4F11821082DF91CF911F910F910895AE
:100220001BBC8ABD19BC68BD08958B98939A08952C
:100230008A98929A0895F89485B7886085BF8BB79D
:1002400080688BBF78940895F89485B7826085BFE5
:100250008BB780648BBF789408951F920F920FB66E
:100260000F9211248F939F93AF93BF9380918A0035
:1002700090918B00A0918C00B0918D000196A11DF2
:10028000B11D80938A0090938B00A0938C00B09353
:100290008D00BF91AF919F918F910F900FBE0F90E6
:1002A0001F9018951F920F920FB60F9211248F93E3
:1002B0009F93AF93BF9380918E0090918F00A091F8
:1002C0009000B09191000196A11DB11D80938E0008
:1002D00090938F00A0939000B0939100BF91AF9145
:1002E0009F918F910F900FBE0F901F9018950F93B5
:1002F0001F93CF93BC0180E090E00E9424082AE97C
:1003000039E94DE451E40E948B070E94F807DC01B3
:10031000CB01A0E0B0E010928A0010928B00109206
:100320008C0010928D0010928E0010928F0010920F
:10033000900010929100F1E0C0E040918A0050914D
:100340008B0060918C0070918D0000918E00109157
:100350008F002091900030919100EF2F481759079E
:100360006A077B0708F4EC2FEE2349F44F2F081798
:1003700019072A073B0708F44C2F4423F1F20E9487
:100380000004CF911F910F91089581B38F6B81BBB2
:10039000969A84B3886F84BB85B385BB0895F8941F
:1003A00089B7806289BF789408951F920F920FB623
:1003B0000F9211248F939F93AF93BF9380918600E8
:1003C00090918700A0918800B09189000196A11DAD
:1003D000B11D8093860090938700A0938800B0930E
:1003E0008900BF91AF919F918F910F900FBE0F9099
:1003F0001F9018951DBC1CBC1BBC1ABC19BC18BC9A
:100400001FBC81E08EBD80E289BF0895AE98AF9891
:100410000895AE9AAF9A0895AE98AF9A0895AE9A9D
:10042000AF980895AC9AAD9A08950E940602109272
:1004300086001092870010928800109289008FEF3A
:100440009FE3A2E081509040A040E1F700C000008F
:100450008091860090918700A0918800B0918900DA
:100460008093A5009093A600A093A700B093A80046
:1004700008950E940902109286001092870010923F
:100480008800109289008FEF9FE3A2E08150904096
:10049000A040E1F700C000008091860090918700A5
:1004A000A0918800B09189008093A1009093A20050
:1004B000A093A300B093A40008950E940C02109290
:1004C00086001092870010928800109289008FEFAA
:1004D0009FE3A2E081509040A040E1F700C00000FF
:1004E0008091860090918700A0918800B09189004A
:1004F00080939A0090939B00A0939C00B0939D00E2
:1005000008950E94FA010E94CF010E94C5010E9435
:1005100012020E9415020E9439020E945D0280911F
:100520009A0090919B00A0919C00B0919D004091F9
:10053000A1005091A2006091A3007091A4004817FF
:1005400059076A077B07D0F44091A5005091A60097
:100550006091A7007091A800481759076A077B07A8
:1005600068F40E944900A89A8FEF9FE7A6E18150A6
:100570009040A040E1F700C00000A8988091A5003D
:100580009091A600A091A700B091A8004091A10071
:100590005091A2006091A3007091A40048175907E0
:1005A0006A077B07D0F440919A0050919B006091BC
:1005B0009C0070919D00481759076A077B0768F4F3
:1005C0000E944B00AA9A8FEF9FE7A6E181509040CE
:1005D000A040E1F700C00000AA988091A10090918E
:1005E000A200A091A300B091A4004091A500509159
:1005F000A6006091A7007091A800481759076A07E4
:100600007B07D0F440919A0050919B0060919C0030
:1006100070919D00481759076A077B0768F40E948C
:100620004900A99A8FEF9FE7A6E181509040A04032
:10063000E1F700C00000A9980895CF93DF93EC0183
:100640000E94C7000E94B40082E00E94CF00682F81
:1006500070E080E090E00E94260821EA30EA40EA5B
:100660005CE30E94B2089B01AC0160E070E080E8AE
:100670009FE30E948B0720E030E040E551E40E94B8
:10068000B2080E94F307DC01CB01863091053CF4EF
:1006900081E090E0209729F080E090E002C080E0C7
:1006A00090E0DF91CF910895A39AAB980895CF93EE
:1006B000DF931092710010927000109273001092EC
:1006C0007200C8EDD0E0609178007091790040919F
:1006D00068005091690080E090E0FE01099560910A
:1006E0007A0070917B0040916A0050916B0081E02C
:1006F00090E0FE01099560917C0070917D00409131
:100700006C0050916D0082E090E0FE010995DF9150
:10071000CF910895CF92DF92EF92FF926091700097
:1007200070917100882777FD8095982F0E94260888
:100730006B017C016091720070917300882777FDD6
:100740008095982F0E9426089B01AC01C701B60135
:100750000E948B076B017C016091660070916700BD
:10076000882777FD8095982F0E9426089B01AC0171
:10077000C701B6010E9426070E94F307AB01BC0126
:10078000CA015093770040937600409164005091E5
:100790006500849F9001859F300D949F300D11243A
:1007A00030937500209374008091780090917900C7
:1007B000009781F480917A0090917B00009751F42A
:1007C00080917C0090917D00009721F4109275003B
:1007D00010927400FF90EF90DF90CF9008950E94E8
:1007E00054030E94B4000E944D000E9415010E9413
:1007F0001801089598B3907F8F70982B98BB089537
:1008000080E00E94FA030895F8940E94EF030E948A
:10081000C7000E94B7000E945A000E941B010E945C
:1008200024010E945A007894089586E00E94FA03F9
:10083000089589E00E94FA0308959F92AF92BF92B3
:10084000CF92DF92EF92FF920F931F93CF93DF939C
:10085000EB01942EBC0180E090E00E94240822E588
:1008600038EB4EE451E40E948B070E94F807C62E35
:10087000D72EE82EF92E10928A0010928B0010923B
:100880008C0010928D0002E610E00F2EF4E7AF2EE0
:10089000F0E0BF2EF02D0E9457030E948A031C1621
:1008A0001D061CF40E94150404C0DD2314F40E94EC
:1008B0001904D8018C91F5019081682F691B890F6B
:1008C0000E94100180E090E00E941D03813091059C
:1008D000B1F580E060E00E94100180918A00909163
:1008E0008B00A0918C00B0918D00F3E59F16C9F4A8
:1008F0000E9449008FEF9FE7A6E181509040A04001
:10090000E1F700C000000E944B000E9415048FEF29
:100910009FEFACE281509040A040E1F700C00000A2
:100920000EC097E5991659F40E9449008FEF9FE792
:10093000A3E481509040A040E1F700C00000809106
:100940008A0090918B00A0918C00B0918D00C81608
:10095000D906EA06FB0608F09ECF0E940004DF914C
:10096000CF911F910F91FF90EF90DF90CF90BF90AC
:10097000AF909F90089585E00E94FA0308958AE061
:100980000E94FA03089584E00E94FA03089582E029
:100990000E94FA03089581E00E94FA03089588E016
:1009A0000E94FA030895462F61E070E050E00E9433
:1009B0001D040895462F6FEF7FEF50E00E941D0445
:1009C0000895CF93DF93EC010E94BB04CE010E94F7
:1009D0007701DF91CF910895CF93DF93EC010E94CF
:1009E000BF04CE010E947701DF91CF910895CF938C
:1009F000DF93EC010E94C304CE01880F991F0E946F
:100A00007701DF91CF910895CF93DF93EC010E949E
:100A1000C704CE01880F991F0E947701DF91CF9103
:100A20000895CF93DF93EC010E94CB04CE01880F91
:100A3000991F0E947701DF91CF910895CF93DF93A3
:100A4000EC010E94CF04CE01880F991F0E9477010C
:100A5000DF91CF9108959C01245030406454704040
:100A6000121613063CF487E090E090938100809387
:100A7000800006C081E090E0909381008093800028
:100A80008091800090918100FC0134971616170622
:100A90003CF486E490E090937F0080937E0010C049
:100AA0006115710539F484E490E090937F008093A0
:100AB0007E0006C082E490E090937F0080937E00E9
:100AC00080917E0090917F00845490402E1B3F0BBC
:100AD0003093850020938400681B790B709383000A
:100AE000609382004093AA0008959091AA009E34DA
:100AF00061F09F3420F4953409F05BC046C0933513
:100B000079F1973509F055C016C0833529F484EB87
:100B100090E00E94EC040895853429F48AE590E081
:100B20000E94EC040895873509F043C08AE590E0FF
:100B30000E94E1040895833529F48AE590E00E943B
:100B4000E1040895853429F484EB90E00E94EC04DC
:100B500008958E3471F58AE590E00E94EC040895C2
:100B60008E3429F484EB90E00E94EC0408958735DC
:100B700029F48AE590E00E94EC0408958534C9F4D4
:100B80008AE590E00E94E1040895873529F484EB1A
:100B900090E00E94EC040895833529F48AE590E002
:100BA0000E94EC0408958E3421F48AE590E00E94BE
:100BB000E10408958091840090918500992324F4A4
:100BC00083E58093990003C08EE48093990080911F
:100BD00099000E947505809199008093AA00209148
:100BE00084003091850033231CF4309521953F4FCC
:100BF000309385002093840084E591E0AC01249F2C
:100C0000C001259F900D349F900D112462E50E9434
:100C1000D30408958091820090918300992324F455
:100C200085E48093990003C087E5809399008091C3
:100C300099000E947505809199008093AA002091E7
:100C400082003091830033231CF4309521953F4F6F
:100C5000309383002093820084E591E0AC01249FCF
:100C6000C001259F900D349F900D112462E50E94D4
:100C7000D30408958F929F92AF92BF92CF92DF924A
:100C8000EF92FF920F931F93CF93DF939C0121501C
:100C9000304084E591E0289F7001299FF00C389F37
:100CA000F00C1124C2E0D0E00EE4AA24BB24A394EB
:100CB00013E50F2EF7E0CF2EDD24F02D0F2EFBEAEB
:100CC0008F2EF0E09F2EF02D80918000909181007A
:100CD0008130910539F410939900D0928100C0922F
:100CE000800009C08730910531F400939900B092DB
:100CF0008100A0928000809199000E9475058091EA
:100D000099008093AA008FEF9FE7A6E18150904061
:100D1000A040E1F700C00000C701612F0E94D3048A
:100D20008FEF9FE7A6E181509040A040E1F700C01F
:100D3000000080919E00853419F4C4010E94B2061F
:100D4000219711F6DF91CF911F910F91FF90EF90B6
:100D5000DF90CF90BF90AF909F908F9008950E94AA
:100D600062000895CF93DF93EC0181E490E00E944C
:100D7000AF06888199810E94AF068A819B810E947B
:100D8000AF0685E490E00E94AF06DF91CF91089511
:100D9000DC01625070409B01220F331F620F731FF2
:100DA000660F771F50E040545040460F571FFA011E
:100DB000EE0FFF1FE155FF4F91838083E0916000AC
:100DC000F09161001E161F06B4F43197F093610094
:100DD000E0936000EE0FFF1FE555FF4F84E690E0C3
:100DE000A89F9001A99F300DB89F300D1124240FAA
:100DF000351F3183208308950E94040483E090E02E
:100E000063E470E045E40E942B050E94DA050E942D
:100E100000048FEF9FE7A6E181509040A040E1F7EA
:100E200000C000000E940A068FEF9FE7A6E18150F4
:100E30009040A040E1F700C0000087E090E00E94F1
:100E40003A060E94000480E090E008955058BB27C5
:100E5000AA270ED04DC13ED130F043D120F031F45D
:100E60009F3F11F41EF433C10EF4E095E7FB29C156
:100E7000E92F4FD180F3BA176207730784079507EC
:100E800018F071F49EF567C10EF4E0950B2EBA2FA1
:100E9000A02D0B01B90190010C01CA01A001112480
:100EA000FF27591B99F0593F50F4503E68F11A162C
:100EB000F040A22F232F342F4427585FF3CF4695BD
:100EC00037952795A795F0405395C9F77EF41F16DF
:100ED000BA0B620B730B840BBAF09150A1F0FF0FA9
:100EE000BB1F661F771F881FC2F70EC0BA0F621F95
:100EF000731F841F48F4879577956795B795F79585
:100F00009E3F08F0B3CF9395880F08F09927EE0F16
:100F10009795879508950CD0EBC0E3D040F0DAD0D8
:100F200030F021F45F3F19F0CCC0511115C1CFC092
:100F3000F0D098F39923C9F35523B1F3951B550BC2
:100F4000BB27AA2762177307840738F09F5F5F4F9C
:100F5000220F331F441FAA1FA9F333D00E2E3AF0DD
:100F6000E0E830D091505040E695001CCAF729D0F7
:100F7000FE2F27D0660F771F881FBB1F2617370746
:100F80004807AB07B0E809F0BB0B802DBF01FF2776
:100F900093585F4F2AF09E3F510568F092C0DCC025
:100FA0005F3FECF3983EDCF3869577956795B795B0
:100FB000F7959F5FC9F7880F911D9695879597F9CB
:100FC0000895E1E0660F771F881FBB1F6217730744
:100FD0008407BA0720F0621B730B840BBA0BEE1F59
:100FE00088F7E095089504D06894B111B5C00895CC
:100FF00098D088F09F5790F0B92F9927B751A0F05B
:10100000D1F0660F771F881F991F1AF0BA95C9F79C
:1010100012C0B13081F09FD0B1E008959CC0672F1D
:10102000782F8827B85F39F0B93FCCF3869577954C
:101030006795B395D9F73EF4909580957095619535
:101040007F4F8F4F9F4F0895E89409C097FB3EF460
:1010500090958095709561957F4F8F4F9F4F992305
:10106000A9F0F92F96E9BB279395F6958795779583
:101070006795B795F111F8CFFAF4BB0F11F460FF43
:101080001BC06F5F7F4F8F4F9F4F16C0882311F09B
:1010900096E911C0772321F09EE8872F762F05C0AF
:1010A000662371F096E8862F70E060E02AF09A954A
:1010B000660F771F881FDAF7880F9695879597F93F
:1010C000089597F99F6780E870E060E008959FEFCA
:1010D00080EC089500240A941616170618060906CF
:1010E000089500240A94121613061406050608959E
:1010F000092E0394000C11F4882352F0BB0F40F426
:10110000BF2B11F460FF04C06F5F7F4F8F4F9F4F65
:10111000089557FD9058440F551F59F05F3F71F0E7
:101120004795880F97FB991F61F09F3F79F087954E
:101130000895121613061406551FF2CF4695F1DFD7
:1011400008C0161617061806991FF1CF8695710567
:10115000610508940895E894BB2766277727CB019B
:1011600097F908950BD0C4CFB5DF28F0BADF18F097
:10117000952309F0A6CFABCF1124EECFCADFA0F3A1
:10118000959FD1F3950F50E0551F629FF001729F1C
:10119000BB27F00DB11D639FAA27F00DB11DAA1F3B
:1011A000649F6627B00DA11D661F829F2227B00D88
:1011B000A11D621F739FB00DA11D621F839FA00D13
:1011C000611D221F749F3327A00D611D231F849F63
:1011D000600D211D822F762F6A2F11249F575040BA
:1011E0008AF0E1F088234AF0EE0FFF1FBB1F661F55
:1011F000771F881F91505040A9F79E3F510570F00E
:1012000060CFAACF5F3FECF3983EDCF386957795ED
:101210006795B795F795E7959F5FC1F7FE2B880F08
:10122000911D9695879597F9089597FB092E0726A6
:101230000AD077FD04D00CD006D000201AF47095A7
:1012400061957F4F0895F6F7909581959F4F08958A
:10125000AA1BBB1B51E107C0AA1FBB1FA617B707DC
:1012600010F0A61BB70B881F991F5A95A9F78095F8
:0C1270009095BC01CD010895F894FFCFCB
:10127C0003008C00280002003C003C003C000100F4
:00000001FF
