:100000000C942A000C94F8020C941D030C944700E5
:100010000C9447000C9447000C9447000C94470044
:100020000C9447000C9447000C9447000C94470034
:100030000C9447000C9447000C9447000C94470024
:100040000C9447000C9447000C9447000C94470014
:100050000C94470011241FBECFE5D4E0DEBFCDBF16
:1000600010E0A0E6B0E0E8ECFFE002C005900D92E1
:10007000A837B107D9F710E0A8E7B0E001C01D929A
:10008000AC3AB107E1F70E9406060C94E2070C9423
:100090000000CF93DF9310927900109278001092B5
:1000A0007B0010927A00CEE7D2E0609180007091E0
:1000B0008100409171005091720080E090E0FE015B
:1000C0000995609182007091830040917300509176
:1000D000740081E090E0FE010995609184007091C8
:1000E0008500409175005091760082E090E0FE011D
:1000F0000995DF91CF910895CF92DF92EF92FF9211
:100100006091780070917900882777FD8095982F0D
:100110000E9442076B017C0160917A0070917B0024
:10012000882777FD8095982F0E9442079B01AC019C
:10013000C701B6010E94A7066B017C0160916F00A8
:1001400070917000882777FD8095982F0E94420754
:100150009B01AC01C701B6010E9442060E940F0735
:10016000AB01BC01CA0150937F0040937E004091D7
:100170006D0050916E00849F9001859F300D949F7B
:10018000300D112430937D0020937C0080918000FD
:1001900090918100009781F480918200909183007A
:1001A000009751F48091840090918500009721F48C
:1001B00010927D0010927C00FF90EF90DF90CF9026
:1001C000089595B39F7095BB95B3282F207F922BF0
:1001D00095BBA898A998AA9AE1EEF4E03197F1F7B7
:1001E00000C00000AA9895B39F7095BB95B3829507
:1001F000807F892B85BBA898A998AA9A81EE94E064
:100200000197F1F700C00000AA98089589EF90E0E7
:100210000197F1F700C00000A898A99880E385BB7A
:10022000AA9AE1EEF4E03197F1F700C00000AA9835
:10023000E9EFF0E03197F1F700C00000A898A99825
:1002400085BBAA9AE1EEF4E03197F1F700C0000017
:10025000AA98E9EFF0E03197F1F700C00000A89804
:10026000A99885BBAA9A81EE94E00197F1F700C0A6
:100270000000AA98E9EFF0E03197F1F700C0000024
:10028000A898A99880E285BBAA9A81EE94E001978C
:10029000F1F700C00000AA980895CF93DF9389EF8B
:1002A00090E00197F1F700C00000C1EED0E088E2D5
:1002B00090E0FE01099581E090E0FE01099586E05D
:1002C00090E0FE0109958EE090E0FE01099580E83E
:1002D00090E0FE010995DF91CF91089595B39F704D
:1002E00095BB95B3282F207F922B95BBA89AA998F0
:1002F000AA9AE1EEF4E03197F1F700C00000AA9865
:1003000095B39F7095BB95B38295807F892B85BBF4
:10031000A89AA998AA9A81EE94E00197F1F700C0F3
:100320000000AA98089580E80E94E1000895CF9304
:10033000DF93EC018881882331F021960E946E01C1
:1003400089918823D9F7DF91CF910895823079F090
:10035000833018F48130C9F405C0833069F08430EB
:10036000A1F40FC0862F81580E94E1000895862FC6
:1003700081540E94E1000895862F8D560E94E1006D
:100380000895862F8D520E94E10008950F931F93C8
:10039000CF93DF938A01E901882311F0662319F4D2
:1003A0000E94930102C00E94A601C530D10571F4DC
:1003B000C80160E177E20E94CE07CB01C09690931E
:1003C0009D0080939C000E946E0103C0C430D10543
:1003D000B9F4C80168EE73E00E94CE07CB017093B8
:1003E0009F0060939E006AE070E00E94CE07C09676
:1003F0009093AB008093AA000E946E0181E001C03F
:1004000080E0C330D10511F08130B1F4C80164E659
:1004100070E00E94CE07CB0170939F0060939E0016
:100420006AE070E00E94CE07C0969093A700809388
:10043000A6000E946E0181E0C230D10511F081302A
:10044000B1F42AE030E0C801B9010E94CE07CB0127
:1004500070939F0060939E00B9010E94CE07C096E2
:100460009093A5008093A4000E946E0181E0C130AA
:10047000D10511F0813061F4C8016AE070E00E949A
:10048000CE07C0969093A9008093A8000E946E01A9
:10049000C630D1051CF085E40E946E01DF91CF913A
:1004A0001F910F91089584B3876F84BB85B38078C3
:1004B00085BB08951ABA1BBA08951EBC8FEF8DBD77
:1004C00091E09CBD1BBC8ABD19BC88BD17BC86BD14
:1004D00081EA8FBD8DE08EBD089516B880E287B9A0
:1004E00080E888B986E886B908958770806287B900
:1004F000369A349BFECF85B1349A0895EF92FF92DD
:100500001F93CF93DF937C01EA01182F8D5F0E9428
:10051000750290E08C179D07FCF0F701EE0FFF1FAE
:10052000E058FF4F81E090E09183808380917A00D2
:1005300090917B00019690937B0080937A00C70195
:1005400001962091780030917900820F931F90934B
:1005500079008093780007C0F701EE0FFF1FE05885
:10056000FF4F1182108263E0611BF701EE0FFF1F46
:10057000E058FF4F4081518181E021E030E00E944E
:10058000C601DF91CF911F91FF90EF900895CF9317
:10059000DF93D82FC62F842F0E947502482F809397
:1005A000A0008D2F6C2F50E023E030E00E94C601A8
:1005B000DF91CF9108951BBC8ABD19BC68BD089519
:1005C0008B98939A08958A98929A0895F89485B78B
:1005D000886085BF8BB780688BBF78940895F89446
:1005E00085B7826085BF8BB780648BBF7894089590
:1005F0001F920F920FB60F9211248F939F93AF9378
:10060000BF9380918E0090918F00A0919000B09147
:1006100091000196A11DB11D80938E0090938F00D3
:10062000A0939000B0939100BF91AF919F918F9153
:100630000F900FBE0F901F9018951F920F920FB63C
:100640000F9211248F939F93AF93BF938091920049
:1006500090919300A0919400B09195000196A11DF6
:10066000B11D8093920090939300A0939400B09357
:100670009500BF91AF919F918F910F900FBE0F90FA
:100680001F9018950F931F93CF93BC0180E090E0CB
:100690000E9440072AE939E94DE451E40E94A70687
:1006A0000E941407DC01CB01A0E0B0E010928E00A4
:1006B00010928F0010929000109291001092920070
:1006C000109293001092940010929500F1E0C0E017
:1006D00040918E0050918F00609190007091910038
:1006E0000091920010919300209194003091950018
:1006F000EF2F481759076A077B0708F4EC2FEE2302
:1007000049F44F2F081719072A073B0708F44C2F05
:100710004423F1F20E94AE03CF911F910F910895EF
:1007200087B38F6087BB88B3807F88BB81B38063CA
:1007300081BB82B3806382BB08950E9453020E94F2
:100740005A020E9490030E94E0020E94E302089570
:1007500098B3907F8F70982B98BB089580E00E948B
:10076000A803089586E00E94A803089589E00E94E6
:10077000A803089585E00E94A80308958AE00E94D6
:10078000A803089584E00E94A803089582E00E94CF
:10079000A803089581E00E94A803089588E00E94BC
:1007A000A8030895CF92DF92EF92FF920F931F93C9
:1007B000CF93DF93BC0180E090E00E94400722E5E8
:1007C00038EB4EE451E40E94A7060E941407C62E9F
:1007D000D72EE82EF92E10928E0010928F001092D4
:1007E000900010929100CBE6D0E00CE710E00E9460
:1007F00049000E947C000E94B2038881F801908128
:10080000692F680F891B0E94DB0280918E009091F6
:100810008F00A0919000B0919100C816D906EA0609
:10082000FB0628F70E94AE03DF91CF911F910F9135
:10083000FF90EF90DF90CF9008950E94D20308952B
:10084000CF93DF93EC010E94B603CE010E94D20346
:10085000DF91CF910895CF93DF93EC010E94BA030B
:10086000CE010E944203DF91CF910895CF93DF9391
:10087000EC010E94BE03CE010E944203DF91CF91A2
:100880000895CF93DF93EC010E94C203CE01880F3D
:10089000991F0E944203DF91CF910895CF93DF9378
:1008A000EC010E94C603CE01880F991F0E944203EB
:1008B000DF91CF910895CF93DF93EC010E94CA039B
:1008C000CE01880F991F0E944203DF91CF910895B6
:1008D000CF93DF93EC010E94CE03CE01880F991FC6
:1008E0000E944203DF91CF9108959C012450304033
:1008F00064547040121613063CF487E090E0909325
:1009000089008093880006C081E090E09093890080
:10091000809388008091880090918900FC01349731
:10092000161617063CF486E490E0909387008093B7
:10093000860010C06115710539F484E490E090934D
:1009400087008093860006C082E490E09093870041
:100950008093860080918600909187008454904017
:100960002E1B3F0B30938D0020938C00681B790B5E
:1009700070938B0060938A004093A10008950E94B9
:10098000060181E063E00E94A60180E690E00E94FB
:10099000970140918C0050918D0081E068E023E048
:1009A00030E00E94C60182E061E00E94A60185E677
:1009B00090E00E94970140918A0050918B0082E064
:1009C00068E023E030E00E94C60108959091A10004
:1009D0009E3461F09F3420F4953409F05BC046C02A
:1009E000933579F1973509F055C016C0833529F450
:1009F00084EB90E00E9436040895853429F48AE55A
:100A000090E00E9436040895873509F043C08AE5D6
:100A100090E00E942B040895833529F48AE590E044
:100A20000E942B040895853429F484EB90E00E9401
:100A3000360408958E3471F58AE590E00E943604FC
:100A400008958E3429F484EB90E00E9436040895D2
:100A5000873529F48AE590E00E94360408958534AC
:100A6000C9F48AE590E00E942B040895873529F4A3
:100A700084EB90E00E9436040895833529F48AE5DA
:100A800090E00E94360408958E3421F48AE590E0C7
:100A90000E942B04089580918C0090918D009923E1
:100AA00024F483E58093990003C08EE48093990039
:100AB000809199000E94E604809199008093A100A2
:100AC00020918C0030918D0033231CF430952195BA
:100AD0003F4F30938D0020938C0084E591E0AC0172
:100AE000249FC001259F900D349F900D11240E94DA
:100AF0001D04089580918A0090918B00992324F41D
:100B000085E48093990003C087E5809399008091E4
:100B100099000E94E604809199008093A1002091A1
:100B20008A0030918B0033231CF4309521953F4F80
:100B300030938B0020938A0084E591E0AC01249FE0
:100B4000C001259F900D349F900D11240E941D041B
:100B50000895CF92DF92EF92FF920F931F93CF935E
:100B6000DF939C012150304084E591E0289F800173
:100B7000299F100D389F100D1124C2E0D0E00F2ED8
:100B8000FEE4CF2EF02D0F2EF7E0EF2EFF24F02DF8
:100B90000F2EF3E5DF2EF02D8091880090918900D3
:100BA0008130910539F4D0929900F0928900E09259
:100BB000880009C08730910531F4C0929900F09205
:100BC0008900E0928800809199000E94E60480915B
:100BD00099008093A100C8010E941D042197E1F6AD
:100BE000DF91CF911F910F91FF90EF90DF90CF9009
:100BF0000895F8940E949D030E946D020E945D0278
:100C00000E94E6020E94EF02789408950E94F9057E
:100C10000E9406010E944D0183E090E063E470E0D1
:100C200045E40E9475040E94BF048FE392E4AFE0A4
:100C300081509040A040E1F700C0000081E00E9498
:100C4000E1000E944B050E94AE038FE996E8A1E007
:100C500081509040A040E1F700C000000E947A055A
:100C60008FE996E8A1E081509040A040E1F700C0F4
:100C7000000087E090E00E94A9050E94AE0380E09A
:100C800090E008955058BB27AA270ED04DC13ED101
:100C900030F043D120F031F49F3F11F41EF433C102
:100CA0000EF4E095E7FB29C1E92F4FD180F3BA1785
:100CB000620773078407950718F071F49EF567C102
:100CC0000EF4E0950B2EBA2FA02D0B01B901900167
:100CD0000C01CA01A0011124FF27591B99F0593FAB
:100CE00050F4503E68F11A16F040A22F232F342FF3
:100CF0004427585FF3CF469537952795A795F04041
:100D00005395C9F77EF41F16BA0B620B730B840B55
:100D1000BAF09150A1F0FF0FBB1F661F771F881F0D
:100D2000C2F70EC0BA0F621F731F841F48F4879565
:100D300077956795B795F7959E3F08F0B3CF939554
:100D4000880F08F09927EE0F9795879508950CD096
:100D5000EBC0E3D040F0DAD030F021F45F3F19F07F
:100D6000CCC0511115C1CFC0F0D098F39923C9F36D
:100D70005523B1F3951B550BBB27AA2762177307A1
:100D8000840738F09F5F5F4F220F331F441FAA1F55
:100D9000A9F333D00E2E3AF0E0E830D09150504015
:100DA000E695001CCAF729D0FE2F27D0660F771FC3
:100DB000881FBB1F261737074807AB07B0E809F0A5
:100DC000BB0B802DBF01FF2793585F4F2AF09E3F3A
:100DD000510568F092C0DCC05F3FECF3983EDCF355
:100DE000869577956795B795F7959F5FC9F7880FB3
:100DF000911D9695879597F90895E1E0660F771F05
:100E0000881FBB1F621773078407BA0720F0621B95
:100E1000730B840BBA0BEE1F88F7E095089504D08E
:100E20006894B111B5C0089598D088F09F5790F09C
:100E3000B92F9927B751A0F0D1F0660F771F881FFF
:100E4000991F1AF0BA95C9F712C0B13081F09FD03E
:100E5000B1E008959CC0672F782F8827B85F39F0DC
:100E6000B93FCCF3869577956795B395D9F73EF45E
:100E700090958095709561957F4F8F4F9F4F089506
:100E8000E89409C097FB3EF4909580957095619524
:100E90007F4F8F4F9F4F9923A9F0F92F96E9BB27DA
:100EA0009395F695879577956795B795F111F8CF56
:100EB000FAF4BB0F11F460FF1BC06F5F7F4F8F4FC1
:100EC0009F4F16C0882311F096E911C0772321F0B7
:100ED0009EE8872F762F05C0662371F096E8862F4F
:100EE00070E060E02AF09A95660F771F881FDAF7A6
:100EF000880F9695879597F9089597F99F6780E8E9
:100F000070E060E008959FEF80EC089500240A945B
:100F10001616170618060906089500240A941216D4
:100F20001306140605060895092E0394000C11F407
:100F3000882352F0BB0F40F4BF2B11F460FF04C0B4
:100F40006F5F7F4F8F4F9F4F089557FD9058440F0D
:100F5000551F59F05F3F71F04795880F97FB991F18
:100F600061F09F3F79F087950895121613061406D5
:100F7000551FF2CF4695F1DF08C016161706180662
:100F8000991FF1CF86957105610508940895E8943D
:100F9000BB2766277727CB0197F90895AA1BBB1BB0
:100FA00051E107C0AA1FBB1FA617B70710F0A61B69
:100FB000B70B881F991F5A95A9F780959095BC018A
:080FC000CD010895F894FFCF64
:100FC8005665727400686F72697A00FF000F00023C
:080FD800003C003C003C00005D
:00000001FF
