:100000000C942A000C943F030C9464030C94470056
:100010000C9447000C94E7030C9447000C944700A1
:100020000C9447000C9447000C9447000C947D02FC
:100030000C9447000C9447000C9447000C94470024
:100040000C9447000C9447000C9447000C94470014
:100050000C94470011241FBECFE5D4E0DEBFCDBF16
:1000600010E0A0E6B0E0EAE4F4E102C005900D92F1
:10007000AA37B107D9F710E0AAE7B0E001C01D9296
:10008000AF3BB107E1F70E94F6070C94230A0C94EA
:100090000000AB9A0895AB980895CF93DF93109228
:1000A0007B0010927A0010927D0010927C00C6EDC9
:1000B000D2E0609182007091830040917100509174
:1000C000720080E090E0FE010995609184007091DB
:1000D0008500409173005091740081E090E0FE0132
:1000E000099560918600709187004091750050914C
:1000F000760082E090E0FE01099580918200909167
:1001000083008130910511F4A89A03C0009709F487
:10011000A89880918400909185008130910511F418
:10012000A99A03C0009709F4A9988091860090913C
:1001300087008130910509F4AA9ADF91CF91089543
:10014000CF92DF92EF92FF9260917A0070917B00E4
:10015000882777FD8095982F0E9420096B017C01EC
:1001600060917C0070917D00882777FD8095982FA5
:100170000E9420099B01AC01C701B6010E948508BD
:100180006B017C0160916F0070917000882777FD92
:100190008095982F0E9420099B01AC01C701B601F0
:1001A0000E9420080E94ED08AB01BC01CA015093D7
:1001B00081004093800040916D0050916E00849FBB
:1001C0009001859F300D949F300D112430937F0056
:1001D00020937E008091820090918300009781F4AB
:1001E0008091840090918500009751F48091860061
:1001F00090918700009721F410927F0010927E006A
:10020000FF90EF90DF90CF90089595B39F7095BBCE
:1002100095B3282F207F922B95BBA898A998AA9ACE
:10022000EFEFF3E23197F1F700C00000AA9895B321
:100230009F7095BB95B38295807F892B85BBA898CD
:10024000A998AA9A8FEF93E20197F1F700C00000F6
:10025000AA98089583E397E00197F1F7A898A998E1
:1002600080E385BBAA9AEFEFF3E23197F1F700C084
:100270000000AA98E3E3F7E03197F1F7A898A9986E
:1002800085BBAA9AEFEFF3E23197F1F700C00000C7
:10029000AA98E3E3F7E03197F1F7A898A99885BB0E
:1002A000AA9A8FEF93E20197F1F700C00000AA9895
:1002B000E3E3F7E03197F1F7A898A99880E285BBCE
:1002C000AA9A8FEF93E20197F1F700C00000AA9875
:1002D0000895CF93DF9383E397E00197F1F7C5E0AB
:1002E000D1E088E290E0FE01099581E090E0FE0116
:1002F000099586E090E0FE0109958EE090E0FE0110
:10030000099580E890E0FE010995DF91CF9108956D
:1003100095B39F7095BB95B3282F207F922B95BBEB
:10032000A89AA998AA9AEFEFF3E23197F1F700C0E3
:100330000000AA9895B39F7095BB95B38295807F76
:10034000892B85BBA89AA998AA9A8FEF93E2019767
:10035000F1F700C00000AA98089580E80E94050106
:100360000895CF93DF93EC018881882331F02196A3
:100370000E94880189918823D9F7DF91CF91089550
:10038000823079F0833018F48130C9F405C08330AD
:1003900069F08430A1F40FC0862F81580E940501B6
:1003A0000895862F81540E9405010895862F8D5649
:1003B0000E9405010895862F8D520E94050108951F
:1003C0000F931F93CF93DF938A01E901882311F0E4
:1003D000662319F40E94AD0102C00E94C001C5301D
:1003E000D10571F4C80160E177E20E940F0ACB01E8
:1003F000C0969093A8008093A7000E94880103C034
:10040000C430D105B9F4C80168EE73E00E940F0A48
:10041000CB017093AA006093A9006AE070E00E948B
:100420000F0AC0969093BE008093BD000E94880181
:1004300081E001C080E0C330D10511F08130B1F41A
:10044000C80164E670E00E940F0ACB017093AA0015
:100450006093A9006AE070E00E940F0AC096909332
:10046000BA008093B9000E94880181E0C230D105B2
:1004700011F08130B1F42AE030E0C801B9010E94E6
:100480000F0ACB017093AA006093A900B9010E94E2
:100490000F0AC0969093B8008093B7000E9488011D
:1004A00081E0C130D10511F0813061F4C8016AE00A
:1004B00070E00E940F0AC0969093BC008093BB002E
:1004C0000E948801C630D1051CF085E40E94880195
:1004D000DF91CF911F910F91089588E98AB986E83D
:1004E00080BD8FE289B910BC08955D9BFECF8CB9A9
:1004F00008955F9BFECF8CB108951F920F920FB6A7
:100500000F9211242F933F934F935F936F937F9399
:100510008F939F93AF93BF93EF93FF938CB180938F
:10052000A400813619F40E94490004C0823611F4F7
:100530000E944B00FF91EF91BF91AF919F918F91DE
:100540007F916F915F914F913F912F910F900FBECF
:100550000F901F90189584B3876F84BB85B3807804
:1005600085BB08951ABA1BBA08951EBC8FEF8DBDC6
:1005700091E09CBD1BBC8ABD19BC88BD17BC86BD63
:1005800081EA8FBD8DE08EBD089516B880E287B9EF
:1005900080E888B986E886B908958770806287B94F
:1005A000369A349BFECF85B1349A08950F931F93EA
:1005B000CF93DF938C01EA018D5F0E94CD0290E022
:1005C0008C179D07FCF0F801EE0FFF1FEE57FF4F51
:1005D00081E090E09183808380917C0090917D0008
:1005E000019690937D0080937C00C8010196009154
:1005F0007A0010917B00080F191F10937B00009365
:100600007A0007C0F801EE0FFF1FEE57FF4F11826F
:100610001082DF91CF911F910F910895CF93DF93B7
:10062000D82FC62F842F0E94CD02482F8093B3006D
:100630008D2F6C2F50E023E030E00E94E001DF912D
:10064000CF9108951BBC8ABD19BC68BD08958B98D5
:10065000939A08958A98929A0895F89485B7886035
:1006600085BF8BB780688BBF78940895F89485B761
:10067000826085BF8BB780648BBF789408951F928A
:100680000F920FB60F9211248F939F93AF93BF9346
:100690008091940090919500A0919600B091970060
:1006A0000196A11DB11D8093940090939500A09395
:1006B0009600B0939700BF91AF919F918F910F904B
:1006C0000FBE0F901F9018951F920F920FB60F92AA
:1006D00011248F939F93AF93BF9380919800909133
:1006E0009900A0919A00B0919B000196A11DB11DA7
:1006F0008093980090939900A0939A00B0939B00E8
:10070000BF91AF919F918F910F900FBE0F901F904F
:1007100018950F931F93CF93BC0180E090E00E9447
:100720001E092AE939E94DE451E40E9485080E9436
:10073000F208DC01CB01A0E0B0E01092940010922E
:1007400095001092960010929700109298001092C7
:10075000990010929A0010929B00F1E0C0E0409145
:1007600094005091950060919600709197000091CF
:1007700098001091990020919A0030919B00EF2FE2
:10078000481759076A077B0708F4EC2FEE2349F452
:100790004F2F081719072A073B0708F44C2F44234B
:1007A000F1F20E947005CF911F910F91089581B3CE
:1007B0008F6B81BB969A84B3886F84BB85B385BBEE
:1007C0000895F89489B7806289BF789408951F923C
:1007D0000F920FB60F9211248F939F93AF93BF93F5
:1007E0008091900090919100A0919200B09193001F
:1007F0000196A11DB11D8093900090939100A0934C
:100800009200B0939300BF91AF919F918F910F9001
:100810000FBE0F901F9018951DBC1CBC1BBC1ABCB2
:1008200019BC18BC1FBC81E08EBD80E289BF089551
:10083000AE98AF980895AE9AAF9A0895AE98AF9AD1
:100840000895AE9AAF980895AC9AAD9A08950E9413
:100850001804109290001092910010929200109241
:1008600093008FEF9FE3A2E081509040A040E1F71A
:1008700000C000008091900090919100A0919200A2
:10088000B09193008093AF009093B000A093B1001B
:10089000B093B20008950E941B0410929000109231
:1008A000910010929200109293008FEF9FE3A2E0CC
:1008B00081509040A040E1F700C00000809190007E
:1008C00090919100A0919200B09193008093AB0021
:1008D0009093AC00A093AD00B093AE0008950E9439
:1008E0001E041092900010929100109292001092AB
:1008F00093008FEF9FE3A2E081509040A040E1F78A
:1009000000C000008091900090919100A091920011
:10091000B09193008093A0009093A100A093A200B7
:10092000B093A30008950E94E1030E940C040E946A
:10093000D7030E9424040E9427040E944B040E94B3
:100940006F048091A0009091A100A091A200B091AD
:10095000A3004091AB005091AC006091AD0070914C
:10096000AE00481759076A077B0778F44091AF003B
:100970005091B0006091B1007091B20048175907D2
:100980006A077B0710F40E9449008091AF009091A4
:10099000B000A091B100B091B2004091AB00509175
:1009A000AC006091AD007091AE00481759076A071E
:1009B0007B0778F44091A0005091A1006091A200C3
:1009C0007091A300481759076A077B0710F40E942B
:1009D0004B008091AB009091AC00A091AD00B09124
:1009E000AE004091AF005091B0006091B1007091A5
:1009F000B200481759076A077B0718F54091A00015
:100A00005091A1006091A2007091A300481759076E
:100A10006A077B07B0F40E9449008FEF9FE7A6E1C9
:100A200081509040A040E1F700C000000E944B00C0
:100A30008FEF9FE7A6E181509040A040E1F700C012
:100A4000000008950E94C5020E94B20282E00E9446
:100A5000CD02682F70E080E090E00E94200921EA3A
:100A600030EA40EA5CE30E94AC099B01AC0160E023
:100A700070E080E89FE30E94850820E030E040E5D8
:100A800051E40E94AC090E94ED08AB01BC0181E079
:100A900090E04A30510514F080E090E00895A39A68
:100AA000AB98089587B38F6087BB88B3807F88BB7E
:100AB00081B3806381BB82B3806382BB08950E944F
:100AC0004F050E94B2020E9452050E9427030E9415
:100AD0002A03089598B3907F8F70982B98BB089540
:100AE00080E00E946A05089586E00E946A050895E4
:100AF00089E00E946A05089585E00E946A050895CC
:100B00008AE00E946A05089584E00E946A050895BB
:100B100082E00E946A05089581E00E946A050895B6
:100B200088E00E946A050895AF92BF92CF92DF924B
:100B3000EF92FF920F931F93CF93DF93EB01BC01D2
:100B400080E090E00E941E0922E538EB4EE451E47B
:100B50000E9485080E94F208C62ED72EE82EF92E94
:100B600010929400109295001092960010929700A7
:100B70000BE610E00F2EFEE7AF2EF0E0BF2EF02DBB
:100B80000E944D000E94A0001C161D061CF40E942D
:100B9000740504C0DD2314F40E947805F8018081F7
:100BA000F5019081682F691B890F0E9422038091B3
:100BB000940090919500A0919600B0919700C8166E
:100BC000D906EA06FB06E0F60E947005DF91CF9198
:100BD0001F910F91FF90EF90DF90CF90BF90AF905B
:100BE0000895462F61E070E00E9494050895462F15
:100BF0006FEF7FEF0E9494050895CF93DF93EC0190
:100C00000E947C05CE010E948903DF91CF91089557
:100C1000CF93DF93EC010E948005CE010E948903EF
:100C2000DF91CF910895CF93DF93EC010E9484056B
:100C3000CE01880F991F0E948903DF91CF910895FB
:100C4000CF93DF93EC010E948805CE01880F991F96
:100C50000E948903DF91CF910895CF93DF93EC0138
:100C60000E948C05CE01880F991F0E948903DF9195
:100C7000CF910895CF93DF93EC010E949005CE01B0
:100C8000880F991F0E948903DF91CF9108959C01DD
:100C90002450304064547040121613063CF487E030
:100CA00090E090938B0080938A0006C081E090E0F2
:100CB00090938B0080938A0080918A0090918B00A2
:100CC000FC013497161617063CF486E490E09093E6
:100CD00089008093880010C06115710539F484E49F
:100CE00090E0909389008093880006C082E490E0B1
:100CF000909389008093880080918800909189006A
:100D0000845490402E1B3F0B30938F0020938E0015
:100D1000681B790B70938D0060938C004093B40036
:100D200008950E942A0181E063E00E94C00180E6EC
:100D300090E00E94B10140918E0050918F0081E0BF
:100D400068E023E030E00E94E00182E061E00E9480
:100D5000C00185E690E00E94B10140918C00509165
:100D60008D0082E068E023E030E00E94E001089519
:100D70009091B4009E3461F09F3420F4953409F0D2
:100D80005BC046C0933579F1973509F055C016C060
:100D9000833529F484EB90E00E9408060895853499
:100DA00029F48AE590E00E9408060895873509F045
:100DB00043C08AE590E00E94FD050895833529F43B
:100DC0008AE590E00E94FD050895853429F484EBBE
:100DD00090E00E94080608958E3471F58AE590E04F
:100DE0000E94080608958E3429F484EB90E00E9456
:100DF00008060895873529F48AE590E00E940806E0
:100E000008958534C9F48AE590E00E94FD050895AF
:100E1000873529F484EB90E00E9408060895833515
:100E200029F48AE590E00E94080608958E3421F4A2
:100E30008AE590E00E94FD05089580918E009091D2
:100E40008F00992324F483E580939F0003C08EE4F0
:100E500080939F0080919F000E94B80680919F0020
:100E60008093B40020918E0030918F0033231CF4C6
:100E7000309521953F4F30938F0020938E0084B39F
:100E8000876084BB84E591E0AC01249FC001259F6D
:100E9000900D349F900D112463E50E94F105089593
:100EA00080918C0090918D00992324F485E48093A7
:100EB0009F0003C087E580939F0080919F000E9460
:100EC000B80680919F008093B40020918C003091EF
:100ED0008D0033231CF4309521953F4F30938D00C6
:100EE00020938C0084E591E0AC01249FC001259FF4
:100EF000900D349F900D112463E50E94F105089533
:100F0000CF92DF92EF92FF920F931F93CF93DF93D5
:100F10009C012150304084E591E0289F7001299F79
:100F2000F00C389FF00C1124C2E0D0E00EE40F2E3C
:100F3000F7E0CF2EDD24F02D13E580918A0090910B
:100F40008B008130910539F410939F00D0928B0073
:100F5000C0928A0009C08730910531F400939F0048
:100F6000D0928B00C0928A0080919F000E94B806A8
:100F700080919F008093B4008FEF9FE7A6E181509E
:100F80009040A040E1F700C00000C701612F0E941F
:100F9000F1058FEF9FE7A6E181509040A040E1F777
:100FA00000C00000219749F6DF91CF911F910F916A
:100FB000FF90EF90DF90CF9008952091770094E616
:100FC000299F902D1124890F0E9475020895F8948D
:100FD0000E945F050E94C5020E94B5020E942D0377
:100FE0000E9436030E946D02789408950E94E707DC
:100FF00083E090E063E470E045E40E9447060E94CD
:101000001D070E9470058FEF9FE7A6E18150904079
:10101000A040E1F700C000000E9450078FEF9FE75B
:10102000A6E181509040A040E1F700C0000087E0B9
:1010300090E00E9480070E94700580E090E0089593
:101040005058BB27AA270ED04DC13ED130F043D116
:1010500020F031F49F3F11F41EF433C10EF4E095FB
:10106000E7FB29C1E92F4FD180F3BA176207730755
:101070008407950718F071F49EF567C10EF4E095AA
:101080000B2EBA2FA02D0B01B90190010C01CA0142
:10109000A0011124FF27591B99F0593F50F4503EED
:1010A00068F11A16F040A22F232F342F4427585FDF
:1010B000F3CF469537952795A795F0405395C9F7F7
:1010C0007EF41F16BA0B620B730B840BBAF09150AF
:1010D000A1F0FF0FBB1F661F771F881FC2F70EC04E
:1010E000BA0F621F731F841F48F487957795679521
:1010F000B795F7959E3F08F0B3CF9395880F08F00A
:101100009927EE0F9795879508950CD0EBC0E3D003
:1011100040F0DAD030F021F45F3F19F0CCC051112B
:1011200015C1CFC0F0D098F39923C9F35523B1F37B
:10113000951B550BBB27AA2762177307840738F046
:101140009F5F5F4F220F331F441FAA1FA9F333D0A5
:101150000E2E3AF0E0E830D091505040E695001C59
:10116000CAF729D0FE2F27D0660F771F881FBB1F15
:10117000261737074807AB07B0E809F0BB0B802DEF
:10118000BF01FF2793585F4F2AF09E3F510568F03B
:1011900092C0DCC05F3FECF3983EDCF38695779518
:1011A0006795B795F7959F5FC9F7880F911D96953D
:1011B000879597F90895E1E0660F771F881FBB1F99
:1011C000621773078407BA0720F0621B730B840B46
:1011D000BA0BEE1F88F7E095089504D06894B1111A
:1011E000B5C0089598D088F09F5790F0B92F9927EF
:1011F000B751A0F0D1F0660F771F881F991F1AF022
:10120000BA95C9F712C0B13081F09FD0B1E008950E
:101210009CC0672F782F8827B85F39F0B93FCCF38F
:10122000869577956795B395D9F73EF49095809517
:10123000709561957F4F8F4F9F4F0895E89409C037
:1012400097FB3EF490958095709561957F4F8F4FF9
:101250009F4F9923A9F0F92F96E9BB279395F6950F
:10126000879577956795B795F111F8CFFAF4BB0F8D
:1012700011F460FF1BC06F5F7F4F8F4F9F4F16C0F1
:10128000882311F096E911C0772321F09EE8872F7B
:10129000762F05C0662371F096E8862F70E060E037
:1012A0002AF09A95660F771F881FDAF7880F9695B0
:1012B000879597F9089597F99F6780E870E060E057
:1012C00008959FEF80EC089500240A9416161706DF
:1012D00018060906089500240A9412161306140627
:1012E00005060895092E0394000C11F4882352F08A
:1012F000BB0F40F4BF2B11F460FF04C06F5F7F4F42
:101300008F4F9F4F089557FD9058440F551F59F028
:101310005F3F71F04795880F97FB991F61F09F3FE2
:1013200079F087950895121613061406551FF2CF0B
:101330004695F1DF08C0161617061806991FF1CF5B
:1013400086957105610508940895E894BB27662782
:101350007727CB0197F908950BD0C4CFB5DF28F0DC
:10136000BADF18F0952309F0A6CFABCF1124EECF4A
:10137000CADFA0F3959FD1F3950F50E0551F629FF0
:10138000F001729FBB27F00DB11D639FAA27F00DDE
:10139000B11DAA1F649F6627B00DA11D661F829F05
:1013A0002227B00DA11D621F739FB00DA11D621FEA
:1013B000839FA00D611D221F749F3327A00D611D07
:1013C000231F849F600D211D822F762F6A2F1124E9
:1013D0009F5750408AF0E1F088234AF0EE0FFF1F3C
:1013E000BB1F661F771F881F91505040A9F79E3F73
:1013F000510570F060CFAACF5F3FECF3983EDCF36D
:10140000869577956795B795F795E7959F5FC1F7AF
:10141000FE2B880F911D9695879597F90895AA1B25
:10142000BB1B51E107C0AA1FBB1FA617B70710F0CF
:10143000A61BB70B881F991F5A95A9F78095909501
:0A144000BC01CD010895F894FFCF20
:10144A005665727400686F72697A008C002800020F
:0A145A00003C003C003C00010000D3
:00000001FF
