:100000000C942A000C94F2020C9417030C944700F1
:100010000C9447000C949A030C9447000C944700EE
:100020000C9447000C9447000C9447000C94470034
:100030000C9447000C9447000C9447000C94470024
:100040000C9447000C9447000C9447000C94470014
:100050000C94470011241FBECFE5D4E0DEBFCDBF16
:1000600010E0A0E6B0E0E2EEF3E102C005900D92F0
:10007000A837B107D9F710E0A8E7B0E001C01D929A
:10008000AC3BB107E1F70E94B0070C94EF090C9468
:100090000000AB9A0895AB980895CF93DF93109228
:1000A00079001092780010927B0010927A00C8E7D5
:1000B000D2E0609180007091810040917100509178
:1000C000720080E090E0FE010995609182007091DD
:1000D0008300409173005091740081E090E0FE0134
:1000E0000995609184007091850040917500509150
:1000F000760082E090E0FE010995DF91CF910895AE
:10010000CF92DF92EF92FF92609178007091790028
:10011000882777FD8095982F0E94EC086B017C0161
:1001200060917A0070917B00882777FD8095982FE9
:100130000E94EC089B01AC01C701B6010E94510866
:100140006B017C0160916F0070917000882777FDD2
:100150008095982F0E94EC089B01AC01C701B60165
:100160000E94EC070E94B908AB01BC01CA01509380
:100170007F0040937E0040916D0050916E00849FFF
:100180009001859F300D949F300D112430937D0098
:1001900020937C008091800090918100009781F4F1
:1001A0008091820090918300009751F480918400A7
:1001B00090918500009721F410927D0010927C00B0
:1001C000FF90EF90DF90CF90089595B39F7095BB0F
:1001D00095B3282F207F922B95BBA898A998AA9A0F
:1001E000EFEFF3E23197F1F700C00000AA9895B362
:1001F0009F7095BB95B38295807F892B85BBA8980E
:10020000A998AA9A8FEF93E20197F1F700C0000036
:10021000AA98089583E397E00197F1F7A898A99821
:1002200080E385BBAA9AEFEFF3E23197F1F700C0C4
:100230000000AA98E3E3F7E03197F1F7A898A998AE
:1002400085BBAA9AEFEFF3E23197F1F700C0000007
:10025000AA98E3E3F7E03197F1F7A898A99885BB4E
:10026000AA9A8FEF93E20197F1F700C00000AA98D5
:10027000E3E3F7E03197F1F7A898A99880E285BB0E
:10028000AA9A8FEF93E20197F1F700C00000AA98B5
:100290000895CF93DF9383E397E00197F1F7C5EEDD
:1002A000D0E088E290E0FE01099581E090E0FE0157
:1002B000099586E090E0FE0109958EE090E0FE0150
:1002C000099580E890E0FE010995DF91CF910895AE
:1002D00095B39F7095BB95B3282F207F922B95BB2C
:1002E000A89AA998AA9AEFEFF3E23197F1F700C024
:1002F0000000AA9895B39F7095BB95B38295807FB7
:10030000892B85BBA89AA998AA9A8FEF93E20197A7
:10031000F1F700C00000AA98089580E80E94E50067
:100320000895CF93DF93EC018881882331F02196E3
:100330000E94680189918823D9F7DF91CF910895B0
:10034000823079F0833018F48130C9F405C08330ED
:1003500069F08430A1F40FC0862F81580E94E50017
:100360000895862F81540E94E5000895862F8D56AA
:100370000E94E5000895862F8D520E94E5000895A1
:100380000F931F93CF93DF938A01E901882311F024
:10039000662319F40E948D0102C00E94A001C5309D
:1003A000D10571F4C80160E177E20E94DB09CB015D
:1003B000C0969093A5008093A4000E94680103C09A
:1003C000C430D105B9F4C80168EE73E00E94DB09BE
:1003D000CB017093A7006093A6006AE070E00E94D2
:1003E000DB09C0969093BB008093BA000E9468011D
:1003F00081E001C080E0C330D10511F08130B1F45B
:10040000C80164E670E00E94DB09CB017093A7008D
:100410006093A6006AE070E00E94DB09C0969093AA
:10042000B7008093B6000E94680181E0C230D10518
:1004300011F08130B1F42AE030E0C801B9010E9426
:10044000DB09CB017093A7006093A600B9010E945D
:10045000DB09C0969093B5008093B4000E946801B8
:1004600081E0C130D10511F0813061F4C8016AE04A
:1004700070E00E94DB09C0969093B9008093B800A9
:100480000E946801C630D1051CF085E40E94680115
:10049000DF91CF911F910F91089584B3876F84BB33
:1004A00085B3807885BB08951ABA1BBA08951EBC1F
:1004B0008FEF8DBD91E09CBD1BBC8ABD19BC88BD72
:1004C00017BC86BD81EA8FBD8DE08EBD089516B83C
:1004D00080E287B980E888B986E886B90895877090
:1004E000806287B9369A349BFECF85B1349A0895DD
:1004F000EF92FF921F93CF93DF937C01EA01182FB5
:100500008D5F0E946F0290E08C179D07FCF0F70151
:10051000EE0FFF1FE058FF4F81E090E09183808352
:1005200080917A0090917B00019690937B0080935C
:100530007A00C70101962091780030917900820FEE
:10054000931F909379008093780007C0F701EE0F16
:10055000FF1FE058FF4F1182108263E0611BF7011B
:10056000EE0FFF1FE058FF4F4081518181E021E0F5
:1005700030E00E94C001DF91CF911F91FF90EF907A
:100580000895CF93DF93D82FC62F842F0E946F0238
:10059000482F8093B0008D2F6C2F50E023E030E087
:1005A0000E94C001DF91CF9108951BBC8ABD19BC88
:1005B00068BD08958B98939A08958A98929A0895A1
:1005C000F89485B7886085BF8BB780688BBF7894B7
:1005D0000895F89485B7826085BF8BB780648BBF20
:1005E000789408951F920F920FB60F9211248F9353
:1005F0009F93AF93BF938091920090919300A091AD
:100600009400B09195000196A11DB11D80939200B8
:1006100090939300A0939400B0939500BF91AF91F5
:100620009F918F910F900FBE0F901F9018951F9262
:100630000F920FB60F9211248F939F93AF93BF9396
:100640008091960090919700A0919800B0919900A8
:100650000196A11DB11D8093960090939700A093E1
:100660009800B0939900BF91AF919F918F910F9097
:100670000FBE0F901F9018950F931F93CF93BC013F
:1006800080E090E00E94EA082AE939E94DE451E46B
:100690000E9451080E94BE08DC01CB01A0E0B0E03E
:1006A0001092920010929300109294001092950074
:1006B0001092960010929700109298001092990054
:1006C000F1E0C0E04091920050919300609194005D
:1006D00070919500009196001091970020919800DC
:1006E00030919900EF2F481759076A077B0708F4E4
:1006F000EC2FEE2349F44F2F081719072A073B0761
:1007000008F44C2F4423F1F20E942005CF911F9151
:100710000F91089581B38F6B81BB969A84B3886FD4
:1007200084BB85B385BB0895F89489B7806289BF7F
:10073000789408951F920F920FB60F9211248F9301
:100740009F93AF93BF9380918E0090918F00A09163
:100750009000B09191000196A11DB11D80938E0073
:1007600090938F00A0939000B0939100BF91AF91B0
:100770009F918F910F900FBE0F901F9018951DBCE9
:100780001CBC1BBC1ABC19BC18BC1FBC81E08EBDB4
:1007900080E289BF0895AE98AF980895AE9AAF9A57
:1007A0000895AE98AF9A0895AE9AAF980895AC9A0E
:1007B000AD9A08950E94CB0310928E0010928F0084
:1007C00010929000109291008FEF9FE3A2E0815071
:1007D0009040A040E1F700C0000080918E00909111
:1007E0008F00A0919000B09191008093AC00909305
:1007F000AD00A093AE00B093AF0008950E94CE0369
:1008000010928E0010928F00109290001092910022
:100810008FEF9FE3A2E081509040A040E1F700C03D
:10082000000080918E0090918F00A0919000B09177
:1008300091008093A8009093A900A093AA00B09380
:10084000AB0008950E94D10310928E0010928F0089
:1008500010929000109291008FEF9FE3A2E08150E0
:100860009040A040E1F700C0000080918E00909180
:100870008F00A0919000B091910080939E00909382
:100880009F00A093A000B093A10008950E9494033C
:100890000E94BF030E948A030E94D7030E94DA03CA
:1008A0000E94FE030E94220480919E0090919F006E
:1008B000A091A000B091A1004091A8005091A90082
:1008C0006091AA007091AB00481759076A077B072F
:1008D00078F44091AC005091AD006091AE00709101
:1008E000AF00481759076A077B0710F40E944900B8
:1008F0008091AC009091AD00A091AE00B091AF009E
:100900004091A8005091A9006091AA007091AB009D
:10091000481759076A077B0778F440919E00509169
:100920009F006091A0007091A100481759076A07C5
:100930007B0710F40E944B008091A8009091A900C1
:10094000A091AA00B091AB004091AC005091AD00D5
:100950006091AE007091AF00481759076A077B0796
:1009600018F540919E0050919F006091A0007091F9
:10097000A100481759076A077B07B0F40E94490095
:100980008FEF9FE7A6E181509040A040E1F700C0C3
:1009900000000E944B008FEF9FE7A6E1815090403E
:1009A000A040E1F700C0000008950E9467020E9485
:1009B000540282E00E946F02682F70E080E090E0B5
:1009C0000E94EC0821EA30EA40EA5CE30E947809E0
:1009D0009B01AC0160E070E080E89FE30E94510859
:1009E00020E030E040E551E40E9478090E94B90817
:1009F000AB01BC0181E090E04A30510514F080E089
:100A000090E0089587B38F6087BB88B3807F88BBF1
:100A100081B3806381BB82B3806382BB08950E94EF
:100A20004D020E9454020E9402050E94DA020E94B6
:100A3000DD02089598B3907F8F70982B98BB08952E
:100A400080E00E941A05089586E00E941A05089524
:100A500089E00E941A05089585E00E941A0508950C
:100A60008AE00E941A05089584E00E941A050895FC
:100A700082E00E941A05089581E00E941A050895F7
:100A800088E00E941A0508959F92AF92BF92CF927C
:100A9000DF92EF92FF920F931F93CF93DF93EB01BF
:100AA000942EBC0180E090E00E94EA0822E538EB39
:100AB0004EE451E40E9451080E94BE08C62ED72E73
:100AC000E82EF92E1092920010929300109294004A
:100AD000109295000BE610E00F2EFCE7AF2EF0E031
:100AE000BF2EF02D0E944D000E9480001C161D0696
:100AF0001CF40E94240504C0DD2314F40E94280580
:100B0000D8018C91F5019081692F680F891B0E9493
:100B1000D5020E94D5048130910511F50E9420056F
:100B20008091920090919300A0919400B0919500D3
:100B3000F3E59F1629F40E9446040E94570210C054
:100B400087E5981669F40E9420050E9449008FEFFE
:100B50009FE7A3E481509040A040E1F700C000006F
:100B60008091920090919300A0919400B091950093
:100B7000C816D906EA06FB0608F0B4CF0E94200585
:100B8000DF91CF911F910F91FF90EF90DF90CF9069
:100B9000BF90AF909F900895462F61E070E00E9453
:100BA00044050895462F6FEF7FEF0E944405089596
:100BB000CF93DF93EC010E942C05CE010E943C03F1
:100BC000DF91CF910895CF93DF93EC010E94300520
:100BD000CE010E943C03DF91CF910895CF93DF9324
:100BE000EC010E943405CE01880F991F0E943C033E
:100BF000DF91CF910895CF93DF93EC010E943805E8
:100C0000CE01880F991F0E943C03DF91CF91089578
:100C1000CF93DF93EC010E943C05CE01880F991F12
:100C20000E943C03DF91CF910895CF93DF93EC01B5
:100C30000E944005CE01880F991F0E943C03DF915E
:100C4000CF9108959C012450304064547040121696
:100C500013063CF487E090E090938900809388002D
:100C600006C081E090E09093890080938800809195
:100C7000880090918900FC013497161617063CF401
:100C800086E490E0909387008093860010C0611501
:100C9000710539F484E490E0909387008093860096
:100CA00006C082E490E09093870080938600809154
:100CB000860090918700845490402E1B3F0B309308
:100CC0008D0020938C00681B790B70938B006093D0
:100CD0008A004093B10008950E940A0181E063E018
:100CE0000E94A00180E690E00E94910140918C005A
:100CF00050918D0081E068E023E030E00E94C00167
:100D000082E061E00E94A00185E690E00E949101EE
:100D100040918A0050918B0082E068E023E030E04F
:100D20000E94C00108959091B1009E3461F09F34FB
:100D300020F4953409F05BC046C0933579F19735BE
:100D400009F055C016C0833529F484EB90E00E9469
:100D5000E3050895853429F48AE590E00E94E305CF
:100D60000895873509F043C08AE590E00E94D805D0
:100D70000895833529F48AE590E00E94D805089506
:100D8000853429F484EB90E00E94E30508958E34C5
:100D900071F58AE590E00E94E30508958E3429F408
:100DA00084EB90E00E94E3050895873529F48AE5F5
:100DB00090E00E94E30508958534C9F48AE590E047
:100DC0000E94D8050895873529F484EB90E00E94AD
:100DD000E3050895833529F48AE590E00E94E30550
:100DE00008958E3421F48AE590E00E94D805089594
:100DF00080918C0090918D00992324F483E5809359
:100E00009D0003C08EE480939D0080919D000E9410
:100E1000930680919D008093B10020918C003091C9
:100E20008D0033231CF4309521953F4F30938D0076
:100E300020938C0084E591E0AC01249FC001259FA4
:100E4000900D349F900D112463E50E94CC05089508
:100E500080918A0090918B00992324F485E48093FB
:100E60009D0003C087E580939D0080919D000E94B6
:100E7000930680919D008093B10020918A0030916B
:100E80008B0033231CF4309521953F4F30938B001A
:100E900020938A0084E591E0AC01249FC001259F46
:100EA000900D349F900D112463E50E94CC050895A8
:100EB000CF92DF92EF92FF920F931F93CF93DF9326
:100EC0009C012150304084E591E0289F7001299FCA
:100ED000F00C389FF00C1124C2E0D0E00EE40F2E8D
:100EE000F7E0CF2EDD24F02D13E58091880090915E
:100EF00089008130910539F410939D00D0928900CA
:100F0000C092880009C08730910531F400939D009C
:100F1000D0928900C092880080919D000E94930623
:100F200080919D008093B100C701612F0E94CC0584
:100F30002197D9F6DF91CF911F910F91FF90EF90FC
:100F4000DF90CF900895F8940E940F050E946702E9
:100F50000E9457020E94E0020E94E90278940895DC
:100F60000E94A3070E940A010E94490183E090E0C9
:100F700063E470E045E40E9422060E946C068FEF55
:100F80009FE7A0E781509040A040E1F700C000003B
:100F900081E00E94E5000E94F8060E9420058FEF84
:100FA0009FE3ABE081509040A040E1F700C000001B
:100FB0000E9428078FEF9FE3ABE081509040A04054
:100FC000E1F700C0000087E090E00E9458070E940F
:100FD000200580E090E008955058BB27AA270ED046
:100FE0004DC13ED130F043D120F031F49F3F11F498
:100FF0001EF433C10EF4E095E7FB29C1E92F4FD170
:1010000080F3BA17620773078407950718F071F425
:101010009EF567C10EF4E0950B2EBA2FA02D0B01A3
:10102000B90190010C01CA01A0011124FF27591B2D
:1010300099F0593F50F4503E68F11A16F040A22F33
:10104000232F342F4427585FF3CF469537952795A4
:10105000A795F0405395C9F77EF41F16BA0B620BA3
:10106000730B840BBAF09150A1F0FF0FBB1F661FEA
:10107000771F881FC2F70EC0BA0F621F731F841F2D
:1010800048F4879577956795B795F7959E3F08F053
:10109000B3CF9395880F08F09927EE0F9795879512
:1010A00008950CD0EBC0E3D040F0DAD030F021F45A
:1010B0005F3F19F0CCC0511115C1CFC0F0D098F3EB
:1010C0009923C9F35523B1F3951B550BBB27AA27C9
:1010D00062177307840738F09F5F5F4F220F331F3B
:1010E000441FAA1FA9F333D00E2E3AF0E0E830D007
:1010F00091505040E695001CCAF729D0FE2F27D00A
:10110000660F771F881FBB1F261737074807AB07D7
:10111000B0E809F0BB0B802DBF01FF2793585F4F4C
:101120002AF09E3F510568F092C0DCC05F3FECF3AF
:10113000983EDCF3869577956795B795F7959F5F11
:10114000C9F7880F911D9695879597F90895E1E065
:10115000660F771F881FBB1F621773078407BA07C4
:1011600020F0621B730B840BBA0BEE1F88F7E0951F
:10117000089504D06894B111B5C0089598D088F04E
:101180009F5790F0B92F9927B751A0F0D1F0660F73
:10119000771F881F991F1AF0BA95C9F712C0B1308E
:1011A00081F09FD0B1E008959CC0672F782F8827E9
:1011B000B85F39F0B93FCCF3869577956795B395CD
:1011C000D9F73EF490958095709561957F4F8F4F3C
:1011D0009F4F0895E89409C097FB3EF49095809541
:1011E000709561957F4F8F4F9F4F9923A9F0F92FED
:1011F00096E9BB279395F695879577956795B7956B
:10120000F111F8CFFAF4BB0F11F460FF1BC06F5F50
:101210007F4F8F4F9F4F16C0882311F096E911C062
:10122000772321F09EE8872F762F05C0662371F083
:1012300096E8862F70E060E02AF09A95660F771F97
:10124000881FDAF7880F9695879597F9089597F98B
:101250009F6780E870E060E008959FEF80EC08955C
:1012600000240A9416161706180609060895002485
:101270000A9412161306140605060895092E0394FF
:10128000000C11F4882352F0BB0F40F4BF2B11F473
:1012900060FF04C06F5F7F4F8F4F9F4F089557FDD2
:1012A0009058440F551F59F05F3F71F04795880FD4
:1012B00097FB991F61F09F3F79F08795089512166B
:1012C00013061406551FF2CF4695F1DF08C0161617
:1012D00017061806991FF1CF8695710561050894C8
:1012E0000895E894BB2766277727CB0197F90895DF
:1012F0000BD0C4CFB5DF28F0BADF18F0952309F082
:10130000A6CFABCF1124EECFCADFA0F3959FD1F3C8
:10131000950F50E0551F629FF001729FBB27F00DA3
:10132000B11D639FAA27F00DB11DAA1F649F6627F8
:10133000B00DA11D661F829F2227B00DA11D621F47
:10134000739FB00DA11D621F839FA00D611D221F01
:10135000749F3327A00D611D231F849F600D211DE5
:10136000822F762F6A2F11249F5750408AF0E1F088
:1013700088234AF0EE0FFF1FBB1F661F771F881FD1
:1013800091505040A9F79E3F510570F060CFAACF11
:101390005F3FECF3983EDCF3869577956795B795BC
:1013A000F795E7959F5FC1F7FE2B880F911D9695E6
:1013B000879597F90895AA1BBB1B51E107C0AA1F87
:1013C000BB1FA617B70710F0A61BB70B881F991FE6
:1013D0005A95A9F780959095BC01CD010895F89490
:0213E000FFCF3D
:1013E2005665727400686F72697A00FF000F00021E
:0813F200003C003C003C00003F
:00000001FF
