:100000000C942A000C943F030C9464030C94470056
:100010000C9447000C94E7030C9447000C944700A1
:100020000C9447000C9447000C9447000C947D02FC
:100030000C9447000C9447000C9447000C94470024
:100040000C9447000C9447000C9447000C94470014
:100050000C94470011241FBECFE5D4E0DEBFCDBF16
:1000600010E0A0E6B0E0EAE0F4E102C005900D92F5
:10007000AE36B107D9F710E0AEE6B0E001C01D9290
:10008000A33BB107E1F70E94D6070C94030A0C9436
:100090000000AB9A0895AB980895CF93DF93109228
:1000A0006F0010926E001092710010927000C6EDF9
:1000B000D2E0609176007091770040916600509197
:1000C000670080E090E0FE010995609178007091F2
:1000D0007900409168005091690081E090E0FE0154
:1000E000099560917A0070917B0040916A0050916F
:1000F0006B0082E090E0FE0109958091760090917E
:1001000077008130910511F4A89A03C0009709F493
:10011000A89880917800909179008130910511F430
:10012000A99A03C0009709F4A99880917A00909148
:100130007B008130910509F4AA9ADF91CF9108954F
:10014000CF92DF92EF92FF9260916E0070916F00FC
:10015000882777FD8095982F0E9400096B017C010C
:100160006091700070917100882777FD8095982FBD
:100170000E9400099B01AC01C701B6010E946508FD
:100180006B017C016091640070916500882777FDA8
:100190008095982F0E9400099B01AC01C701B60110
:1001A0000E9400080E94CD08AB01BC01CA01509317
:1001B0007500409374004091620050916300849FE9
:1001C0009001859F300D949F300D11243093730062
:1001D000209372008091760090917700009781F4CF
:1001E0008091780090917900009751F480917A0085
:1001F00090917B00009721F410927300109272008E
:10020000FF90EF90DF90CF90089595B39F7095BBCE
:1002100095B3282F207F922B95BBA898A998AA9ACE
:10022000EFEFF3E23197F1F700C00000AA9895B321
:100230009F7095BB95B38295807F892B85BBA898CD
:10024000A998AA9A8FEF93E20197F1F700C00000F6
:10025000AA98089583E397E00197F1F7A898A998E1
:1002600080E385BBAA9AEFEFF3E23197F1F700C084
:100270000000AA98E3E3F7E03197F1F7A898A9986E
:1002800085BBAA9AEFEFF3E23197F1F700C00000C7
:10029000AA98E3E3F7E03197F1F7A898A99885BB0E
:1002A000AA9A8FEF93E20197F1F700C00000AA9895
:1002B000E3E3F7E03197F1F7A898A99880E285BBCE
:1002C000AA9A8FEF93E20197F1F700C00000AA9875
:1002D0000895CF93DF9383E397E00197F1F7C5E0AB
:1002E000D1E088E290E0FE01099581E090E0FE0116
:1002F000099586E090E0FE0109958EE090E0FE0110
:10030000099580E890E0FE010995DF91CF9108956D
:1003100095B39F7095BB95B3282F207F922B95BBEB
:10032000A89AA998AA9AEFEFF3E23197F1F700C0E3
:100330000000AA9895B39F7095BB95B38295807F76
:10034000892B85BBA89AA998AA9A8FEF93E2019767
:10035000F1F700C00000AA98089580E80E94050106
:100360000895CF93DF93EC018881882331F02196A3
:100370000E94880189918823D9F7DF91CF91089550
:10038000823079F0833018F48130C9F405C08330AD
:1003900069F08430A1F40FC0862F81580E940501B6
:1003A0000895862F81540E9405010895862F8D5649
:1003B0000E9405010895862F8D520E94050108951F
:1003C0000F931F93CF93DF938A01E901882311F0E4
:1003D000662319F40E94AD0102C00E94C001C5301D
:1003E000D10571F4C80160E177E20E94EF09CB0109
:1003F000C09690939C0080939B000E94880103C04C
:10040000C430D105B9F4C80168EE73E00E94EF0969
:10041000CB0170939E0060939D006AE070E00E94A3
:10042000EF09C0969093B2008093B1000E948801BA
:1004300081E001C080E0C330D10511F08130B1F41A
:10044000C80164E670E00E94EF09CB0170939E0042
:1004500060939D006AE070E00E94EF09C09690935F
:10046000AE008093AD000E94880181E0C230D105CA
:1004700011F08130B1F42AE030E0C801B9010E94E6
:10048000EF09CB0170939E0060939D00B9010E941B
:10049000EF09C0969093AC008093AB000E94880156
:1004A00081E0C130D10511F0813061F4C8016AE00A
:1004B00070E00E94EF09C0969093B0008093AF0067
:1004C0000E948801C630D1051CF085E40E94880195
:1004D000DF91CF911F910F91089588E98AB986E83D
:1004E00080BD8FE289B910BC08955D9BFECF8CB9A9
:1004F00008955F9BFECF8CB108951F920F920FB6A7
:100500000F9211242F933F934F935F936F937F9399
:100510008F939F93AF93BF93EF93FF938CB180938F
:100520009800813619F40E94490004C0823611F403
:100530000E944B00FF91EF91BF91AF919F918F91DE
:100540007F916F915F914F913F912F910F900FBECF
:100550000F901F90189584B3876F84BB85B3807804
:1005600085BB08951ABA1BBA08951EBC8FEF8DBDC6
:1005700091E09CBD1BBC8ABD19BC88BD17BC86BD63
:1005800081EA8FBD8DE08EBD089516B880E287B9EF
:1005900080E888B986E886B908958770806287B94F
:1005A000369A349BFECF85B1349A08950F931F93EA
:1005B000CF93DF938C01EA018D5F0E94CD0290E022
:1005C0008C179D07FCF0F801EE0FFF1FEA58FF4F54
:1005D00081E090E091838083809170009091710020
:1005E00001969093710080937000C801019600916C
:1005F0006E0010916F00080F191F10936F00009389
:100600006E0007C0F801EE0FFF1FEA58FF4F11827E
:100610001082DF91CF911F910F910895CF93DF93B7
:10062000D82FC62F842F0E94CD02482F8093A70079
:100630008D2F6C2F50E023E030E00E94E001DF912D
:10064000CF9108951BBC8ABD19BC68BD08958B98D5
:10065000939A08958A98929A0895F89485B7886035
:1006600085BF8BB780688BBF78940895F89485B761
:10067000826085BF8BB780648BBF789408951F928A
:100680000F920FB60F9211248F939F93AF93BF9346
:100690008091880090918900A0918A00B0918B0090
:1006A0000196A11DB11D8093880090938900A093AD
:1006B0008A00B0938B00BF91AF919F918F910F9063
:1006C0000FBE0F901F9018951F920F920FB60F92AA
:1006D00011248F939F93AF93BF9380918C0090913F
:1006E0008D00A0918E00B0918F000196A11DB11DCB
:1006F00080938C0090938D00A0938E00B0938F0018
:10070000BF91AF919F918F910F900FBE0F901F904F
:1007100018950F931F93CF93BC0180E090E00E9447
:10072000FE082AE939E94DE451E40E9465080E9477
:10073000D208DC01CB01A0E0B0E01092880010925A
:10074000890010928A0010928B0010928C001092F7
:100750008D0010928E0010928F00F1E0C0E0409169
:1007600088005091890060918A0070918B000091FF
:100770008C0010918D0020918E0030918F00EF2F12
:10078000481759076A077B0708F4EC2FEE2349F452
:100790004F2F081719072A073B0708F44C2F44234B
:1007A000F1F20E947005CF911F910F91089581B3CE
:1007B0008F6B81BB969A84B3886F84BB85B385BBEE
:1007C0000895F89489B7806289BF789408951F923C
:1007D0000F920FB60F9211248F939F93AF93BF93F5
:1007E0008091840090918500A0918600B09187004F
:1007F0000196A11DB11D8093840090938500A09364
:100800008600B0938700BF91AF919F918F910F9019
:100810000FBE0F901F9018951DBC1CBC1BBC1ABCB2
:1008200019BC18BC1FBC81E08EBD80E289BF089551
:10083000AE98AF980895AE9AAF9A0895AE98AF9AD1
:100840000895AE9AAF980895AC9AAD9A08950E9413
:100850001804109284001092850010928600109265
:1008600087008FEF9FE3A2E081509040A040E1F726
:1008700000C000008091840090918500A0918600C6
:10088000B09187008093A3009093A400A093A5004B
:10089000B093A60008950E941B0410928400109249
:1008A000850010928600109287008FEF9FE3A2E0F0
:1008B00081509040A040E1F700C00000809184008A
:1008C00090918500A0918600B091870080939F0051
:1008D0009093A000A093A100B093A20008950E945D
:1008E0001E041092840010928500109286001092CF
:1008F00087008FEF9FE3A2E081509040A040E1F796
:1009000000C000008091840090918500A091860035
:10091000B09187008093940090939500A0939600E7
:10092000B093970008950E94E1030E940C040E9476
:10093000D7030E9424040E9427040E944B040E94B3
:100940006F048091940090919500A0919600B091D1
:10095000970040919F005091A0006091A10070917C
:10096000A200481759076A077B0778F44091A30053
:100970005091A4006091A5007091A60048175907F6
:100980006A077B0710F40E9449008091A3009091B0
:10099000A400A091A500B091A60040919F005091A5
:1009A000A0006091A1007091A200481759076A0742
:1009B0007B0778F4409194005091950060919600E7
:1009C00070919700481759076A077B0710F40E9437
:1009D0004B0080919F009091A000A091A100B09148
:1009E000A2004091A3005091A4006091A5007091D5
:1009F000A600481759076A077B0718F5409194002D
:100A00005091950060919600709197004817590792
:100A10006A077B07B0F40E9449008FEF9FE7A6E1C9
:100A200081509040A040E1F700C000000E944B00C0
:100A30008FEF9FE7A6E181509040A040E1F700C012
:100A4000000008950E94C5020E94B20282E00E9446
:100A5000CD02682F70E080E090E00E94000921EA5A
:100A600030EA40EA5CE30E948C099B01AC0160E043
:100A700070E080E89FE30E94650820E030E040E5F8
:100A800051E40E948C090E94CD08AB01BC0181E0B9
:100A900090E04A30510514F080E090E00895A39A68
:100AA000AB98089587B38F6087BB88B3807F88BB7E
:100AB00081B3806381BB82B3806382BB08950E944F
:100AC0004F050E94B2020E9452050E9427030E9415
:100AD0002A03089598B3907F8F70982B98BB089540
:100AE00080E00E946A05089586E00E946A050895E4
:100AF00089E00E946A05089585E00E946A050895CC
:100B00008AE00E946A05089584E00E946A050895BB
:100B100082E00E946A05089581E00E946A050895B6
:100B200088E00E946A050895AF92BF92CF92DF924B
:100B3000EF92FF920F931F93CF93DF93EB01BC01D2
:100B400080E090E00E94FE0822E538EB4EE451E49C
:100B50000E9465080E94D208C62ED72EE82EF92ED4
:100B6000109288001092890010928A0010928B00D7
:100B700000E610E00F2EF2E7AF2EF0E0BF2EF02DD2
:100B80000E944D000E94A0001C161D061CF40E942D
:100B9000740504C0DD2314F40E947805F8018081F7
:100BA000F5019081682F691B890F0E9422038091B3
:100BB000880090918900A0918A00B0918B00C8169E
:100BC000D906EA06FB06E0F60E947005DF91CF9198
:100BD0001F910F91FF90EF90DF90CF90BF90AF905B
:100BE0000895462F61E070E00E9494050895462F15
:100BF0006FEF7FEF0E9494050895CF93DF93EC0190
:100C00000E947C05CE010E948903DF91CF91089557
:100C1000CF93DF93EC010E948005CE010E948903EF
:100C2000DF91CF910895CF93DF93EC010E9484056B
:100C3000CE01880F991F0E948903DF91CF910895FB
:100C4000CF93DF93EC010E948805CE01880F991F96
:100C50000E948903DF91CF910895CF93DF93EC0138
:100C60000E948C05CE01880F991F0E948903DF9195
:100C7000CF910895CF93DF93EC010E949005CE01B0
:100C8000880F991F0E948903DF91CF9108959C01DD
:100C90002450304064547040121613063CF487E030
:100CA00090E090937F0080937E0006C081E090E00A
:100CB00090937F0080937E0080917E0090917F00D2
:100CC000FC013497161617063CF486E490E09093E6
:100CD0007D0080937C0010C06115710539F484E4B7
:100CE00090E090937D0080937C0006C082E490E0C9
:100CF00090937D0080937C0080917C0090917D009A
:100D0000845490402E1B3F0B30938300209382002D
:100D1000681B790B70938100609380004093A8005A
:100D200008959091A8009E3461F09F3420F495348A
:100D300009F05BC046C0933579F1973509F055C08D
:100D400016C0833529F484EB90E00E9408060895CC
:100D5000853429F48AE590E00E94080608958735D5
:100D600009F043C08AE590E00E94FD0508958335AF
:100D700029F48AE590E00E94FD050895853429F460
:100D800084EB90E00E94080608958E3471F58AE5A0
:100D900090E00E94080608958E3429F484EB90E0D8
:100DA0000E9408060895873529F48AE590E00E949C
:100DB000080608958534C9F48AE590E00E94FD058F
:100DC0000895873529F484EB90E00E940806089581
:100DD000833529F48AE590E00E94080608958E3450
:100DE00021F48AE590E00E94FD050895809182003B
:100DF00090918300992324F483E58093930003C0AA
:100E00008EE480939300809193000E9491068091DC
:100E100093008093A80020918200309183003323B7
:100E20001CF4309521953F4F30938300209382002E
:100E300084B3876084BB84E591E0AC01249FC0014A
:100E4000259F900D349F900D112463E50E94F105BC
:100E500008958091800090918100992324F485E485
:100E60008093930003C087E5809393008091930063
:100E70000E949106809193008093A80020918000A9
:100E80003091810033231CF4309521953F4F3093EE
:100E900081002093800084E591E0AC01249FC00193
:100EA000259F900D349F900D112463E50E94F1055C
:100EB0000895AF92BF92CF92DF92EF92FF920F937D
:100EC0001F93CF93DF939C012150304084E591E044
:100ED000289F7001299FF00C389FF00C1124C2E06C
:100EE000D0E00EE4AA24BB24A39413E50F2EF7E070
:100EF000CF2EDD24F02D80917E0090917F008130F7
:100F0000910539F410939300D0927F00C0927E0037
:100F100009C08730910531F400939300B0927F00AF
:100F2000A0927E00809193000E9491068091930090
:100F30008093A8008FEF9FE7A6E181509040A040EA
:100F4000E1F700C00000C701612F0E94F1058FEF9B
:100F50009FE7A6E181509040A040E1F700C000006B
:100F6000219749F6DF91CF911F910F91FF90EF905C
:100F7000DF90CF90BF90AF90089520916C0094E6E1
:100F8000299F902D1124890F0E9475020895F894CD
:100F90000E945F050E94C5020E94B5020E942D03B7
:100FA0000E9436030E946D02789408950E94C7073C
:100FB00085E090E064E470E04EE40E9447060E9401
:100FC000F6060E9470058FEF9FE7A6E181509040E2
:100FD000A040E1F700C000000E9429078FEF9FE7C3
:100FE000A6E181509040A040E1F700C0000087E0FA
:100FF00090E00E9459070E94700580E090E00895FB
:101000005058BB27AA270ED04DC13ED130F043D156
:1010100020F031F49F3F11F41EF433C10EF4E0953B
:10102000E7FB29C1E92F4FD180F3BA176207730795
:101030008407950718F071F49EF567C10EF4E095EA
:101040000B2EBA2FA02D0B01B90190010C01CA0182
:10105000A0011124FF27591B99F0593F50F4503E2D
:1010600068F11A16F040A22F232F342F4427585F1F
:10107000F3CF469537952795A795F0405395C9F737
:101080007EF41F16BA0B620B730B840BBAF09150EF
:10109000A1F0FF0FBB1F661F771F881FC2F70EC08E
:1010A000BA0F621F731F841F48F487957795679561
:1010B000B795F7959E3F08F0B3CF9395880F08F04A
:1010C0009927EE0F9795879508950CD0EBC0E3D044
:1010D00040F0DAD030F021F45F3F19F0CCC051116C
:1010E00015C1CFC0F0D098F39923C9F35523B1F3BC
:1010F000951B550BBB27AA2762177307840738F087
:101100009F5F5F4F220F331F441FAA1FA9F333D0E5
:101110000E2E3AF0E0E830D091505040E695001C99
:10112000CAF729D0FE2F27D0660F771F881FBB1F55
:10113000261737074807AB07B0E809F0BB0B802D2F
:10114000BF01FF2793585F4F2AF09E3F510568F07B
:1011500092C0DCC05F3FECF3983EDCF38695779558
:101160006795B795F7959F5FC9F7880F911D96957D
:10117000879597F90895E1E0660F771F881FBB1FD9
:10118000621773078407BA0720F0621B730B840B86
:10119000BA0BEE1F88F7E095089504D06894B1115A
:1011A000B5C0089598D088F09F5790F0B92F99272F
:1011B000B751A0F0D1F0660F771F881F991F1AF062
:1011C000BA95C9F712C0B13081F09FD0B1E008954F
:1011D0009CC0672F782F8827B85F39F0B93FCCF3D0
:1011E000869577956795B395D9F73EF49095809558
:1011F000709561957F4F8F4F9F4F0895E89409C078
:1012000097FB3EF490958095709561957F4F8F4F39
:101210009F4F9923A9F0F92F96E9BB279395F6954F
:10122000879577956795B795F111F8CFFAF4BB0FCD
:1012300011F460FF1BC06F5F7F4F8F4F9F4F16C031
:10124000882311F096E911C0772321F09EE8872FBB
:10125000762F05C0662371F096E8862F70E060E077
:101260002AF09A95660F771F881FDAF7880F9695F0
:10127000879597F9089597F99F6780E870E060E097
:1012800008959FEF80EC089500240A94161617061F
:1012900018060906089500240A9412161306140667
:1012A00005060895092E0394000C11F4882352F0CA
:1012B000BB0F40F4BF2B11F460FF04C06F5F7F4F82
:1012C0008F4F9F4F089557FD9058440F551F59F069
:1012D0005F3F71F04795880F97FB991F61F09F3F23
:1012E00079F087950895121613061406551FF2CF4C
:1012F0004695F1DF08C0161617061806991FF1CF9C
:1013000086957105610508940895E894BB276627C2
:101310007727CB0197F908950BD0C4CFB5DF28F01C
:10132000BADF18F0952309F0A6CFABCF1124EECF8A
:10133000CADFA0F3959FD1F3950F50E0551F629F30
:10134000F001729FBB27F00DB11D639FAA27F00D1E
:10135000B11DAA1F649F6627B00DA11D661F829F45
:101360002227B00DA11D621F739FB00DA11D621F2A
:10137000839FA00D611D221F749F3327A00D611D47
:10138000231F849F600D211D822F762F6A2F112429
:101390009F5750408AF0E1F088234AF0EE0FFF1F7C
:1013A000BB1F661F771F881F91505040A9F79E3FB3
:1013B000510570F060CFAACF5F3FECF3983EDCF3AD
:1013C000869577956795B795F795E7959F5FC1F7F0
:1013D000FE2B880F911D9695879597F90895AA1B66
:1013E000BB1B51E107C0AA1FBB1FA617B70710F010
:1013F000A61BB70B881F991F5A95A9F78095909542
:0A140000BC01CD010895F894FFCF60
:0E140A008C00280002003C003C003C00010069
:00000001FF
