:100000000C9472000C9493000C9493000C94930045
:100010000C9493000C94A1030C947C030C94930017
:100020000C9493000C9493000C9493000C94930004
:100030000C9493000C9493000C9493000C949300F4
:100040000C9493000C9493000C9493000C949300E4
:100050000C9493000C9493000C9493000C949300D4
:100060000C9493000C9493000C9493000C949300C4
:100070000C9493000C9493000C9493000C949300B4
:100080000C9493000C9493000C9493000C949300A4
:100090000C9493000C9493000C9493000C94930094
:1000A0000C9493000C9493000C9493000C94930084
:1000B0000C9493000C9493000C9493000C94930074
:1000C0000C9493000C9493000C9493000C94930064
:1000D0000C9493000C9493000C9493000C94930054
:1000E0000C94930011241FBECFEFD1E2DEBFCDBF31
:1000F00000E00CBF12E0A0E0B2E0E8ECF0E100E0CC
:100100000BBF02C007900D92A831B107D9F712E0DA
:10011000A8E1B2E001C01D92AC34B107E1F70E9442
:1001200079060C9462080C940000CF93DF93109230
:1001300019021092180210921B0210921A02C2E0C9
:10014000D3E0609120027091210240911102509100
:10015000120280E090E0FE011995609122027091F8
:100160002302409113025091140281E090E0FE01BD
:1001700019956091240270912502409115025091C9
:10018000160282E090E0FE011995DF91CF9108956B
:10019000CF92DF92EF92FF92609118027091190254
:1001A000882777FD8095982F0E94C2076B017C01FC
:1001B00060911A0270911B02882777FD8095982F15
:1001C0000E94C2079B01AC01C701B6010E9427072C
:1001D0006B017C0160910F0270911002882777FDFE
:1001E0008095982F0E94C2079B01AC01C701B60100
:1001F0000E94C2060E948F07AB01BC01CA01509346
:100200001F0240931E0240910D0250910E02849FE6
:100210009001859F300D949F300D112430931D0265
:1002200020931C028091200290912102009781F47A
:100230008091220290912302009751F48091240230
:1002400090912502009721F410921D0210921C0239
:10025000FF90EF90DF90CF9008953B9A43980895D8
:1002600086B1886088B9089586B1877F88B9089576
:100270000E9430018FEF9FEFA8E081509040A04096
:10028000E1F700C000000E9434018FEF9FEFA8E06B
:1002900081509040A040E1F700C00000089586E63C
:1002A0009EE00197F1F700004098419880E388B9FB
:1002B000429AEFEFF7E43197F1F700C0000042985F
:1002C000E6E6FEE03197F1F700004098419888B9E2
:1002D000429AEFEFF7E43197F1F700C0000042983F
:1002E000E6E6FEE03197F1F700004098419888B9C2
:1002F000429A8FEF97E40197F1F700C0000042980F
:10030000E6E6FEE03197F1F700004098419880E280
:1003100088B9429A8FEF97E40197F1F700C0000087
:100320004298089598B19F7098B998B1282F207F6E
:10033000922B98B940984198429AEFEFF7E43197A1
:10034000F1F700C00000429898B19F7098B998B139
:100350008295807F892B88B940984198429A8FEF87
:1003600097E40197F1F700C000004298089586E6EF
:100370009EE00197F1F7000088E20E94920181E07F
:100380000E94920186E00E9492018EE00E949201FA
:1003900080E80E949201089598B19F7098B998B131
:1003A000282F207F922B98B9409A4198429AEFEFDC
:1003B000F7E43197F1F700C00000429898B19F70C0
:1003C00098B998B18295807F892B88B9409A4198D5
:1003D000429A8FEF97E40197F1F700C0000042982E
:1003E000089580E80E9492010895CF93DF93EC0175
:1003F0008881882331F021960E94CC01899188233D
:10040000D9F7DF91CF910895823079F0833018F4D5
:100410008130C9F405C0833069F08430A1F40FC085
:10042000862F81580E9492010895862F81540E9440
:1004300092010895862F8D560E9492010895862F6D
:100440008D520E94920108950F931F93CF93DF93D3
:100450008A01E901882311F0662319F40E94F10151
:1004600002C00E940402C530D10571F4C80160E1E8
:1004700077E20E944E08CB01C09690933D02809394
:100480003C020E94CC0103C0C430D105B9F4C801BC
:1004900068EE73E00E944E08CB0170933F026093B8
:1004A0003E026AE070E00E944E08C09690934B02B4
:1004B00080934A020E94CC0181E001C080E0C330F9
:1004C000D10511F08130B1F4C80164E670E00E94FA
:1004D0004E08CB0170933F0260933E026AE070E0E9
:1004E0000E944E08C09690934702809346020E9455
:1004F000CC0181E0C230D10511F08130B1F42AE0A5
:1005000030E0C801B9010E944E08CB0170933F0250
:1005100060933E02B9010E944E08C0969093450236
:10052000809344020E94CC0181E0C130D10511F0DA
:10053000813061F4C8016AE070E00E944E08C09604
:1005400090934902809348020E94CC01C630D105A5
:100550001CF085E40E94CC01DF91CF911F910F9197
:10056000089587B1876F87B988B1807888B9089571
:1005700010BA11BA10920701109208010895E1E231
:10058000F1E010828FEF8093250191E09093240198
:10059000109229018093280110922B0180932A0147
:1005A00010922D0180932C0189EA809320018BE029
:1005B00080830895EAE7F0E0108210927B0080E2E9
:1005C00080937C0080E880BF86E88083089588302F
:1005D00018F098E090937B008770806280937C0095
:1005E000EAE7F0E0808180648083808184FFFDCF32
:1005F00080917900EAE7F0E0908190619083109219
:100600007B000895EF92FF921F93CF93DF937C01BD
:10061000EA01182F8F5F0E94E70290E08C179D0778
:10062000FCF0F701EE0FFF1FE05EFD4F81E090E070
:100630009183808380911A0290911B02019690937E
:100640001B0280931A02C701019620911802309173
:100650001902820F931F909319028093180207C00A
:10066000F701EE0FFF1FE05EFD4F1182108263E085
:10067000611BF701EE0FFF1FE05EFD4F40815181CE
:1006800081E021E030E00E942402DF91CF911F91B0
:10069000FF90EF900895CF93DF93D82FC62F842F2C
:1006A0000E94E702482F809340028D2F6C2F50E06C
:1006B00023E030E00E942402DF91CF9108958093DF
:1006C000280160932A0108956C98749A08956D9892
:1006D000759A0895F894EAE6F0E08081826080835C
:1006E000EC9A78940895F894EAE6F0E080818860C6
:1006F0008083ED9A789408951F920F920FB60F920F
:1007000011248F939F93AF93BF9380912E0290916A
:100710002F02A0913002B09131020196A11DB11DAE
:1007200080932E0290932F02A0933002B093310257
:10073000BF91AF919F918F910F900FBE0F901F901F
:1007400018951F920F920FB60F9211248F939F93BB
:10075000AF93BF938091320290913302A091340203
:10076000B09135020196A11DB11D80933202909384
:100770003302A0933402B0933502BF91AF919F91A1
:100780008F910F900FBE0F901F9018950F931F938E
:10079000CF93BC0180E090E00E94C00728E431EED6
:1007A00042E850E40E9427070E949407DC01CB0135
:1007B000A0E0B0E010922E0210922F0210923002B0
:1007C00010923102109232021092330210923402CF
:1007D00010923502F1E0C0E040912E0250912F02BC
:1007E0006091300270913102009132021091330217
:1007F0002091340230913502EF2F481759076A07CC
:100800007B0708F4EC2FEE2349F44F2F0817190744
:100810002A073B0708F44C2F4423F1F20E943604C8
:10082000CF911F910F91089581B18F6081B982B1ED
:10083000807F82B9EAE0F1E0808188618083EBE02B
:10084000F1E080818861808308950E94B1020E9456
:10085000B8020E9414040E9464030E946703089572
:1008600092B1907F8F70982B92B9089580E00E948A
:100870003004089586E00E943004089589E00E94C3
:100880003004089585E00E94300408958AE00E94B3
:100890003004089584E00E943004089582E00E94AC
:1008A0003004089581E00E943004089588E00E9499
:1008B00030040895CF92DF92EF92FF920F931F932F
:1008C000CF93DF93BC0180E090E00E94C00725EE4B
:1008D00030ED4AEA50E40E9427070E949407C62E92
:1008E000D72EE82EF92E10922E0210922F0210927F
:1008F000300210923102CBE0D2E00CE112E00E9413
:1009000095000E94C8000E943A048881F8019081F5
:10091000692F680F891B0E945F0380912E029091BE
:100920002F02A0913002B0913102C816D906EA0612
:10093000FB0628F70E943604DF91CF911F910F919B
:10094000FF90EF90DF90CF9008950E945A04089591
:10095000CF93DF93EC010E943E04CE010E945A0423
:10096000DF91CF910895CF93DF93EC010E94420471
:10097000CE010E94C603DF91CF910895CF93DF93FC
:10098000EC010E944604CE010E94C603DF91CF9184
:100990000895CF93DF93EC010E944A04CE01880FA3
:1009A000991F0E94C603DF91CF910895CF93DF93E3
:1009B000EC010E944E04CE01880F991F0E94C603CD
:1009C000DF91CF910895CF93DF93EC010E94520401
:1009D000CE01880F991F0E94C603DF91CF91089521
:1009E000CF93DF93EC010E945604CE01880F991F2C
:1009F0000E94C603DF91CF9108959C01245030409E
:100A000064547040121613063CF487E090E0909313
:100A100029028093280206C081E090E09093290289
:100A2000809328028091280290912902FC0134973A
:100A3000161617063CF486E490E090932702809304
:100A4000260210C06115710539F484E490E090939A
:100A500027028093260206C082E490E0909327024A
:100A60008093260280912602909127028454904020
:100A70002E1B3F0B30932D0220932C02681B790B09
:100A800070932B0260932A024093410208950E94C2
:100A90004F0181E063E00E94040280E092E00E9446
:100AA000F50140912C0250912D0281E068E023E095
:100AB00030E00E94240282E061E00E94040285E0AE
:100AC00092E00E94F50140912A0250912B0282E0AF
:100AD00068E023E030E00E942402089590914102F2
:100AE0009E3461F09F3420F4953409F05BC046C019
:100AF000933579F1973509F055C016C0833529F43F
:100B000084EB90E00E94BE040895853429F48AE5C0
:100B100090E00E94BE040895873509F043C08AE53D
:100B200090E00E94B3040895833529F48AE590E0AB
:100B30000E94B3040895853429F484EB90E00E9468
:100B4000BE0408958E3471F58AE590E00E94BE04DB
:100B500008958E3429F484EB90E00E94BE04089539
:100B6000873529F48AE590E00E94BE040895853413
:100B7000C9F48AE590E00E94B3040895873529F40A
:100B800084EB90E00E94BE040895833529F48AE541
:100B900090E00E94BE0408958E3421F48AE590E02E
:100BA0000E94B304089580912C0290912D02992304
:100BB00024F483E58093390203C08EE480933902E4
:100BC000809139020E946E0520912C0230912D02F5
:100BD00033231CF4309521953F4F30932D02209301
:100BE0002C0284E591E0AC01249FC001259F900D6B
:100BF000349F900D11240E94A504089580912A022B
:100C000090912B02992324F485E48093390203C048
:100C100087E580933902809139020E946E05209108
:100C20002A0230912B0233231CF4309521953F4F3B
:100C300030932B0220932A0284E591E0AC01249F9B
:100C4000C001259F900D349F900D11240E94A50492
:100C50000895EF92FF920F931F93CF93DF93C2E01B
:100C6000D0E00F2EFEE4EF2EF02D0F2EF3E5FF2E39
:100C7000F02D8C0104551140809128029091290299
:100C80008130910519F4F092390205C08730910541
:100C900011F4E0923902809139020E946E05C80178
:100CA0000E94A50484EB90E00E94BE04219721F7E6
:100CB0000E9430018FEF9FEFACE281509040A04046
:100CC000E1F700C000000E943401DF91CF911F9135
:100CD0000F91FF90EF900895F8940E9425040E94D0
:100CE000DA020E94BF020E946A030E947303789492
:100CF00008950E946C060E944F010E94B7010E9455
:100D000030018FEF9FEFACE281509040A040E1F7BF
:100D100000C000000E94340186E090E067E470E0CB
:100D200045E40E94FD040E9447058FEF9FEFA0EE6F
:100D300081509040A040E1F700C0000081E00E9497
:100D400092010E94D3050E9436048FEF9FE7A6E12F
:100D500081509040A040E1F700C000000E94FE05D5
:100D60008FEF9FE7A6E181509040A040E1F700C0DF
:100D7000000087E090E00E9429060E94360480E08F
:100D800090E008955058BB27AA270ED04DC13ED100
:100D900030F043D120F031F49F3F11F41EF433C101
:100DA0000EF4E095E7FB29C1E92F4FD180F3BA1784
:100DB000620773078407950718F071F49EF567C101
:100DC0000EF4E0950B2EBA2FA02D0B01B901900166
:100DD0000C01CA01A0011124FF27591B99F0593FAA
:100DE00050F4503E68F11A16F040A22F232F342FF2
:100DF0004427585FF3CF469537952795A795F04040
:100E00005395C9F77EF41F16BA0B620B730B840B54
:100E1000BAF09150A1F0FF0FBB1F661F771F881F0C
:100E2000C2F70EC0BA0F621F731F841F48F4879564
:100E300077956795B795F7959E3F08F0B3CF939553
:100E4000880F08F09927EE0F9795879508950CD095
:100E5000EBC0E3D040F0DAD030F021F45F3F19F07E
:100E6000CCC0511115C1CFC0F0D098F39923C9F36C
:100E70005523B1F3951B550BBB27AA2762177307A0
:100E8000840738F09F5F5F4F220F331F441FAA1F54
:100E9000A9F333D00E2E3AF0E0E830D09150504014
:100EA000E695001CCAF729D0FE2F27D0660F771FC2
:100EB000881FBB1F261737074807AB07B0E809F0A4
:100EC000BB0B802DBF01FF2793585F4F2AF09E3F39
:100ED000510568F092C0DCC05F3FECF3983EDCF354
:100EE000869577956795B795F7959F5FC9F7880FB2
:100EF000911D9695879597F90895E1E0660F771F04
:100F0000881FBB1F621773078407BA0720F0621B94
:100F1000730B840BBA0BEE1F88F7E095089504D08D
:100F20006894B111B5C0089598D088F09F5790F09B
:100F3000B92F9927B751A0F0D1F0660F771F881FFE
:100F4000991F1AF0BA95C9F712C0B13081F09FD03D
:100F5000B1E008959CC0672F782F8827B85F39F0DB
:100F6000B93FCCF3869577956795B395D9F73EF45D
:100F700090958095709561957F4F8F4F9F4F089505
:100F8000E89409C097FB3EF4909580957095619523
:100F90007F4F8F4F9F4F9923A9F0F92F96E9BB27D9
:100FA0009395F695879577956795B795F111F8CF55
:100FB000FAF4BB0F11F460FF1BC06F5F7F4F8F4FC0
:100FC0009F4F16C0882311F096E911C0772321F0B6
:100FD0009EE8872F762F05C0662371F096E8862F4E
:100FE00070E060E02AF09A95660F771F881FDAF7A5
:100FF000880F9695879597F9089597F99F6780E8E8
:1010000070E060E008959FEF80EC089500240A945A
:101010001616170618060906089500240A941216D3
:101020001306140605060895092E0394000C11F406
:10103000882352F0BB0F40F4BF2B11F460FF04C0B3
:101040006F5F7F4F8F4F9F4F089557FD9058440F0C
:10105000551F59F05F3F71F04795880F97FB991F17
:1010600061F09F3F79F087950895121613061406D4
:10107000551FF2CF4695F1DF08C016161706180661
:10108000991FF1CF86957105610508940895E8943C
:10109000BB2766277727CB0197F90895AA1BBB1BAF
:1010A00051E107C0AA1FBB1FA617B70710F0A61B68
:1010B000B70B881F991F5A95A9F780959095BC0189
:0810C000CD010895F894FFCF63
:1010C8005665727400686F72697A0064000F0002D6
:0810D800003C003C003C00005C
:00000001FF
